{
    "contractName": "ValueInterpreter",
    "abi": [
        {
            "inputs": [
                {
                    "internalType": "uint256",
                    "name": "_staleRateThreshold",
                    "type": "uint256"
                }
            ],
            "stateMutability": "nonpayable",
            "type": "constructor"
        },
        {
            "anonymous": false,
            "inputs": [
                {
                    "indexed": true,
                    "internalType": "address",
                    "name": "primitive",
                    "type": "address"
                },
                {
                    "indexed": false,
                    "internalType": "address",
                    "name": "aggregator",
                    "type": "address"
                },
                {
                    "indexed": false,
                    "internalType": "enum ValueInterpreter.RateAsset",
                    "name": "rateAsset",
                    "type": "uint8"
                },
                {
                    "indexed": false,
                    "internalType": "uint256",
                    "name": "unit",
                    "type": "uint256"
                }
            ],
            "name": "PrimitiveAdded",
            "type": "event"
        },
        {
            "inputs": [
                {
                    "internalType": "address[]",
                    "name": "_primitives",
                    "type": "address[]"
                },
                {
                    "internalType": "address[]",
                    "name": "_aggregators",
                    "type": "address[]"
                },
                {
                    "internalType": "enum ValueInterpreter.RateAsset[]",
                    "name": "_rateAssets",
                    "type": "uint8[]"
                }
            ],
            "name": "addPrimitives",
            "outputs": [],
            "stateMutability": "nonpayable",
            "type": "function"
        },
        {
            "inputs": [
                {
                    "internalType": "address[]",
                    "name": "_baseAssets",
                    "type": "address[]"
                },
                {
                    "internalType": "uint256[]",
                    "name": "_amounts",
                    "type": "uint256[]"
                },
                {
                    "internalType": "address",
                    "name": "_quoteAsset",
                    "type": "address"
                }
            ],
            "name": "calcCanonicalAssetsTotalValue",
            "outputs": [
                {
                    "internalType": "uint256",
                    "name": "value_",
                    "type": "uint256"
                }
            ],
            "stateMutability": "nonpayable",
            "type": "function"
        },
        {
            "inputs": [
                {
                    "internalType": "address",
                    "name": "_primitive",
                    "type": "address"
                }
            ],
            "name": "getAggregatorForPrimitive",
            "outputs": [
                {
                    "internalType": "address",
                    "name": "aggregator_",
                    "type": "address"
                }
            ],
            "stateMutability": "view",
            "type": "function"
        },
        {
            "inputs": [],
            "name": "getEthUsdAggregator",
            "outputs": [
                {
                    "internalType": "address",
                    "name": "ethUsdAggregator_",
                    "type": "address"
                }
            ],
            "stateMutability": "view",
            "type": "function"
        },
        {
            "inputs": [],
            "name": "getOwner",
            "outputs": [
                {
                    "internalType": "address",
                    "name": "owner_",
                    "type": "address"
                }
            ],
            "stateMutability": "view",
            "type": "function"
        },
        {
            "inputs": [],
            "name": "getStaleRateThreshold",
            "outputs": [
                {
                    "internalType": "uint256",
                    "name": "staleRateThreshold_",
                    "type": "uint256"
                }
            ],
            "stateMutability": "view",
            "type": "function"
        },
        {
            "inputs": [
                {
                    "internalType": "address",
                    "name": "_primitive",
                    "type": "address"
                }
            ],
            "name": "getUnitForPrimitive",
            "outputs": [
                {
                    "internalType": "uint256",
                    "name": "unit_",
                    "type": "uint256"
                }
            ],
            "stateMutability": "view",
            "type": "function"
        },
        {
            "inputs": [],
            "name": "getWethToken",
            "outputs": [
                {
                    "internalType": "address",
                    "name": "wethToken_",
                    "type": "address"
                }
            ],
            "stateMutability": "view",
            "type": "function"
        },
        {
            "inputs": [
                {
                    "internalType": "address",
                    "name": "_asset",
                    "type": "address"
                }
            ],
            "name": "isSupportedPrimitiveAsset",
            "outputs": [
                {
                    "internalType": "bool",
                    "name": "isSupported_",
                    "type": "bool"
                }
            ],
            "stateMutability": "view",
            "type": "function"
        }
    ],
    "bytecode": "60a060405234801561001057600080fd5b5060405161155d38038061155d83398101604081905261002f9161003b565b33608052600055610054565b60006020828403121561004d57600080fd5b5051919050565b6080516114e86100756000396000818160f6015261039101526114e86000f3fe608060405234801561001057600080fd5b50600436106100935760003560e01c8063ae6f52ad11610066578063ae6f52ad1461011a578063b54fbdaa1461012d578063c496f8e814610135578063cf0399c814610158578063e2dd09781461016d57600080fd5b80634c252f911461009857806374626f87146100c2578063787f2568146100d3578063893d20e8146100f4575b600080fd5b6001546001600160a01b03165b6040516001600160a01b0390911681526020015b60405180910390f35b6002546001600160a01b03166100a5565b6100e66100e1366004610f74565b610199565b6040519081526020016100b9565b7f00000000000000000000000000000000000000000000000000000000000000006100a5565b6100e6610128366004611065565b6101f0565b6000546100e6565b610148610143366004610f74565b610350565b60405190151581526020016100b9565b61016b610166366004611181565b610386565b005b6100a561017b366004610f74565b6001600160a01b039081166000908152600360205260409020541690565b60006101ad6001546001600160a01b031690565b6001600160a01b0316826001600160a01b0316036101d45750670de0b6b3a7640000919050565b506001600160a01b031660009081526004602052604090205490565b600082518451146102665760405162461bcd60e51b815260206004820152603560248201527f63616c6343616e6f6e6963616c417373657473546f74616c56616c75653a2041604482015274727261797320756e657175616c206c656e6774687360581b60648201526084015b60405180910390fd5b61026f82610350565b6102da5760405162461bcd60e51b815260206004820152603660248201527f63616c6343616e6f6e6963616c417373657473546f74616c56616c75653a20556044820152751b9cdd5c1c1bdc9d19590817dc5d5bdd19505cdcd95d60521b606482015260840161025d565b60005b84518110156103475760006103258683815181106102fd576102fd61121b565b60200260200101518684815181106103175761031761121b565b60200260200101518661042d565b905061033183826104d2565b925050808061033f90611247565b9150506102dd565b505b9392505050565b600080610375836001600160a01b039081166000908152600360205260409020541690565b6001600160a01b0316141592915050565b336001600160a01b037f000000000000000000000000000000000000000000000000000000000000000016146104175760405162461bcd60e51b815260206004820152603060248201527f6f6e6c794f776e65723a204f6e6c7920746865204f776e65722063616e20636160448201526f3636103a3434b990333ab731ba34b7b760811b606482015260840161025d565b6104258686868686866104e7565b505050505050565b6000816001600160a01b0316846001600160a01b0316148061044d575082155b15610459575081610349565b61046284610350565b1561047957610472848484610970565b9050610349565b60405162461bcd60e51b815260206004820152602860248201527f5f5f63616c63417373657456616c75653a20556e737570706f72746564205f62604482015267185cd9505cdcd95d60c21b606482015260840161025d565b60006104de8284611260565b90505b92915050565b8483146105685760405162461bcd60e51b815260206004820152604360248201527f5f5f6164645072696d6974697665733a20556e657175616c205f7072696d697460448201527f6976657320616e64205f61676772656761746f7273206172726179206c656e6760648201526274687360e81b608482015260a40161025d565b8481146105e85760405162461bcd60e51b815260206004820152604260248201527f5f5f6164645072696d6974697665733a20556e657175616c205f7072696d697460448201527f6976657320616e64205f72617465417373657473206172726179206c656e6774606482015261687360f01b608482015260a40161025d565b60005b8581101561096757600061061f88888481811061060a5761060a61121b565b905060200201602081019061017b9190610f74565b6001600160a01b0316146106805760405162461bcd60e51b815260206004820152602260248201527f5f5f6164645072696d6974697665733a2056616c756520616c72656164792073604482015261195d60f21b606482015260840161025d565b6106af8585838181106106955761069561121b565b90506020020160208101906106aa9190610f74565b610a6f565b60405180604001604052808686848181106106cc576106cc61121b565b90506020020160208101906106e19190610f74565b6001600160a01b031681526020018484848181106107015761070161121b565b90506020020160208101906107169190611273565b600181111561072757610727611294565b90526003600089898581811061073f5761073f61121b565b90506020020160208101906107549190610f74565b6001600160a01b03908116825260208083019390935260409091016000208351815492166001600160a01b0319831681178255928401519092909183916001600160a81b031990911617600160a01b8360018111156107b5576107b5611294565b021790555090505060008787838181106107d1576107d161121b565b90506020020160208101906107e69190610f74565b6001600160a01b031663313ce5676040518163ffffffff1660e01b8152600401602060405180830381865afa158015610823573d6000803e3d6000fd5b505050506040513d601f19601f8201168201806040525081019061084791906112aa565b6108559060ff16600a6113b1565b905080600460008a8a8681811061086e5761086e61121b565b90506020020160208101906108839190610f74565b6001600160a01b031681526020810191909152604001600020558787838181106108af576108af61121b565b90506020020160208101906108c49190610f74565b6001600160a01b03167f742bdf00da3d8f16c0fab93ce38eb6a536a019c9e283888dd44c3a08c0148c028787858181106109005761090061121b565b90506020020160208101906109159190610f74565b8686868181106109275761092761121b565b905060200201602081019061093c9190611273565b8460405161094c939291906113bd565b60405180910390a2508061095f81611247565b9150506105eb565b50505050505050565b60008061097c85610b48565b9050600081136109e45760405162461bcd60e51b815260206004820152602d60248201527f5f5f63616c6343616e6f6e6963616c56616c75653a20496e76616c696420626160448201526c7365206173736574207261746560981b606482015260840161025d565b60006109ef84610b48565b905060008113610a585760405162461bcd60e51b815260206004820152602e60248201527f5f5f63616c6343616e6f6e6963616c56616c75653a20496e76616c696420717560448201526d6f7465206173736574207261746560901b606482015260840161025d565b610a658686848785610c5a565b9695505050505050565b600080826001600160a01b031663feaf968c6040518163ffffffff1660e01b815260040160a060405180830381865afa158015610ab0573d6000803e3d6000fd5b505050506040513d601f19601f82011682018060405250810190610ad49190611416565b5093505092505060008213610b3a5760405162461bcd60e51b815260206004820152602660248201527f5f5f76616c696461746541676772656761746f723a204e6f20726174652064656044820152651d1958dd195960d21b606482015260840161025d565b610b4381610e26565b505050565b600080610b6d836001600160a01b039081166000908152600360205260409020541690565b90506001600160a01b038116610bdb5760405162461bcd60e51b815260206004820152602d60248201527f5f5f6765744c617465737452617465446174613a205072696d6974697665206460448201526c1bd95cc81b9bdd08195e1a5cdd609a1b606482015260840161025d565b6000816001600160a01b031663feaf968c6040518163ffffffff1660e01b815260040160a060405180830381865afa158015610c1b573d6000803e3d6000fd5b505050506040513d601f19601f82011682018060405250810190610c3f9190611416565b50919550909250610c539150829050610e26565b5050919050565b6001600160a01b03808616600090815260036020526040808220549285168252812054909160ff600160a01b91829004811692919091041682610c9c89610199565b90506000610ca987610199565b9050826001811115610cbd57610cbd611294565b846001811115610ccf57610ccf611294565b03610cec57610ce189838a848a610ea1565b945050505050610e1d565b600080610d016002546001600160a01b031690565b6001600160a01b031663feaf968c6040518163ffffffff1660e01b815260040160a060405180830381865afa158015610d3e573d6000803e3d6000fd5b505050506040513d601f19601f82011682018060405250810190610d629190611416565b5093505092505060008213610dc95760405162461bcd60e51b815260206004820152602760248201527f5f5f63616c63436f6e76657273696f6e416d6f756e743a2042616420657468556044820152667364207261746560c81b606482015260840161025d565b610dd281610e26565b6000866001811115610de657610de6611294565b03610e0657610df98b858c868c87610eca565b9650505050505050610e1d565b610e148b858c868c87610f05565b96505050505050505b95945050505050565b610e39610e3260005490565b4290610f34565b811015610e9e5760405162461bcd60e51b815260206004820152602d60248201527f5f5f76616c69646174655261746549734e6f745374616c653a205374616c652060448201526c1c985d194819195d1958dd1959609a1b606482015260840161025d565b50565b6000610a65610eb08684610f40565b610ec485610ebe8a89610f40565b90610f40565b90610f4c565b600080610ee7670de0b6b3a7640000610ec485610ebe8c8b610f40565b9050610ef984610ec48981858a610f40565b98975050505050505050565b600080610f1a83610ec487610ebe8c8b610f40565b9050610ef984610ec4898185670de0b6b3a7640000610f40565b60006104de8284611466565b60006104de8284611479565b60006104de8284611490565b80356001600160a01b0381168114610f6f57600080fd5b919050565b600060208284031215610f8657600080fd5b6104de82610f58565b634e487b7160e01b600052604160045260246000fd5b604051601f8201601f1916810167ffffffffffffffff81118282101715610fce57610fce610f8f565b604052919050565b600067ffffffffffffffff821115610ff057610ff0610f8f565b5060051b60200190565b600082601f83011261100b57600080fd5b8135602061102061101b83610fd6565b610fa5565b82815260059290921b8401810191818101908684111561103f57600080fd5b8286015b8481101561105a5780358352918301918301611043565b509695505050505050565b60008060006060848603121561107a57600080fd5b833567ffffffffffffffff8082111561109257600080fd5b818601915086601f8301126110a657600080fd5b813560206110b661101b83610fd6565b82815260059290921b8401810191818101908a8411156110d557600080fd5b948201945b838610156110fa576110eb86610f58565b825294820194908201906110da565b9750508701359250508082111561111057600080fd5b5061111d86828701610ffa565b92505061112c60408501610f58565b90509250925092565b60008083601f84011261114757600080fd5b50813567ffffffffffffffff81111561115f57600080fd5b6020830191508360208260051b850101111561117a57600080fd5b9250929050565b6000806000806000806060878903121561119a57600080fd5b863567ffffffffffffffff808211156111b257600080fd5b6111be8a838b01611135565b909850965060208901359150808211156111d757600080fd5b6111e38a838b01611135565b909650945060408901359150808211156111fc57600080fd5b5061120989828a01611135565b979a9699509497509295939492505050565b634e487b7160e01b600052603260045260246000fd5b634e487b7160e01b600052601160045260246000fd5b60006001820161125957611259611231565b5060010190565b808201808211156104e1576104e1611231565b60006020828403121561128557600080fd5b81356002811061034957600080fd5b634e487b7160e01b600052602160045260246000fd5b6000602082840312156112bc57600080fd5b815160ff8116811461034957600080fd5b600181815b808511156113085781600019048211156112ee576112ee611231565b808516156112fb57918102915b93841c93908002906112d2565b509250929050565b60008261131f575060016104e1565b8161132c575060006104e1565b8160018114611342576002811461134c57611368565b60019150506104e1565b60ff84111561135d5761135d611231565b50506001821b6104e1565b5060208310610133831016604e8410600b841016171561138b575081810a6104e1565b61139583836112cd565b80600019048211156113a9576113a9611231565b029392505050565b60006104de8383611310565b6001600160a01b038416815260608101600284106113eb57634e487b7160e01b600052602160045260246000fd5b602082019390935260400152919050565b805169ffffffffffffffffffff81168114610f6f57600080fd5b600080600080600060a0868803121561142e57600080fd5b611437866113fc565b945060208601519350604086015192506060860151915061145a608087016113fc565b90509295509295909350565b818103818111156104e1576104e1611231565b80820281158282048414176104e1576104e1611231565b6000826114ad57634e487b7160e01b600052601260045260246000fd5b50049056fea26469706673582212201f269ca28ccf03c2234398aea1f90e215e652618916c113db9cd8bc0c15d461164736f6c63430008130033",
    "sourcePath": "/home/jacques/web/hesiode-protocole/contracts/Infrastructure/ValueInterpreter.sol",
    "compiler": {
        "name": "solc",
        "version": "0.8.19+commit.7dd6d404"
    },
    "functionHashes": {
        "addPrimitives(address[],address[],uint8[])": "cf0399c8",
        "calcCanonicalAssetsTotalValue(address[],uint256[],address)": "ae6f52ad",
        "getAggregatorForPrimitive(address)": "e2dd0978",
        "getEthUsdAggregator()": "74626f87",
        "getOwner()": "893d20e8",
        "getStaleRateThreshold()": "b54fbdaa",
        "getUnitForPrimitive(address)": "787f2568",
        "getWethToken()": "4c252f91",
        "isSupportedPrimitiveAsset(address)": "c496f8e8"
    },
    "gasEstimates": {
        "creation": {
            "codeDepositCost": "1070400",
            "executionCost": "infinite",
            "totalCost": "infinite"
        },
        "external": {
            "addPrimitives(address[],address[],uint8[])": "infinite",
            "calcCanonicalAssetsTotalValue(address[],uint256[],address)": "infinite",
            "getAggregatorForPrimitive(address)": "2648",
            "getEthUsdAggregator()": "2343",
            "getOwner()": "infinite",
            "getStaleRateThreshold()": "2314",
            "getUnitForPrimitive(address)": "4795",
            "getWethToken()": "2310",
            "isSupportedPrimitiveAsset(address)": "2667"
        },
        "internal": {
            "__addPrimitives(address[] calldata,address[] calldata,enum ValueInterpreter.RateAsset[] calldata)": "infinite",
            "__calcAssetValue(address,uint256,address)": "infinite",
            "__calcCanonicalValue(address,uint256,address)": "infinite",
            "__calcConversionAmount(address,uint256,uint256,address,uint256)": "infinite",
            "__calcConversionAmountEthRateAssetToUsdRateAsset(uint256,uint256,uint256,uint256,uint256,uint256)": "infinite",
            "__calcConversionAmountSameRateAsset(uint256,uint256,uint256,uint256,uint256)": "infinite",
            "__calcConversionAmountUsdRateAssetToEthRateAsset(uint256,uint256,uint256,uint256,uint256,uint256)": "infinite",
            "__getLatestRateData(address)": "infinite",
            "__validateAggregator(address)": "infinite",
            "__validateRateIsNotStale(uint256)": "infinite"
        }
    }
}