{
  "_format": "hh-sol-artifact-1",
  "contractName": "ValueInterpreter",
  "sourceName": "contracts/Infrastructure/ValueInterpreter.sol",
  "abi": [
    {
      "inputs": [
        {
          "internalType": "uint256",
          "name": "_staleRateThreshold",
          "type": "uint256"
        }
      ],
      "stateMutability": "nonpayable",
      "type": "constructor"
    },
    {
      "anonymous": false,
      "inputs": [
        {
          "indexed": true,
          "internalType": "address",
          "name": "primitive",
          "type": "address"
        },
        {
          "indexed": false,
          "internalType": "address",
          "name": "aggregator",
          "type": "address"
        },
        {
          "indexed": false,
          "internalType": "enum ValueInterpreter.RateAsset",
          "name": "rateAsset",
          "type": "uint8"
        },
        {
          "indexed": false,
          "internalType": "uint256",
          "name": "unit",
          "type": "uint256"
        }
      ],
      "name": "PrimitiveAdded",
      "type": "event"
    },
    {
      "inputs": [
        {
          "internalType": "address[]",
          "name": "_primitives",
          "type": "address[]"
        },
        {
          "internalType": "address[]",
          "name": "_aggregators",
          "type": "address[]"
        },
        {
          "internalType": "enum ValueInterpreter.RateAsset[]",
          "name": "_rateAssets",
          "type": "uint8[]"
        }
      ],
      "name": "addPrimitives",
      "outputs": [],
      "stateMutability": "nonpayable",
      "type": "function"
    },
    {
      "inputs": [
        {
          "internalType": "address[]",
          "name": "_baseAssets",
          "type": "address[]"
        },
        {
          "internalType": "uint256[]",
          "name": "_amounts",
          "type": "uint256[]"
        },
        {
          "internalType": "address",
          "name": "_quoteAsset",
          "type": "address"
        }
      ],
      "name": "calcCanonicalAssetsTotalValue",
      "outputs": [
        {
          "internalType": "uint256",
          "name": "value_",
          "type": "uint256"
        }
      ],
      "stateMutability": "nonpayable",
      "type": "function"
    },
    {
      "inputs": [
        {
          "internalType": "address",
          "name": "_primitive",
          "type": "address"
        }
      ],
      "name": "getAggregatorForPrimitive",
      "outputs": [
        {
          "internalType": "address",
          "name": "aggregator_",
          "type": "address"
        }
      ],
      "stateMutability": "view",
      "type": "function"
    },
    {
      "inputs": [],
      "name": "getEthUsdAggregator",
      "outputs": [
        {
          "internalType": "address",
          "name": "ethUsdAggregator_",
          "type": "address"
        }
      ],
      "stateMutability": "view",
      "type": "function"
    },
    {
      "inputs": [],
      "name": "getOwner",
      "outputs": [
        {
          "internalType": "address",
          "name": "owner_",
          "type": "address"
        }
      ],
      "stateMutability": "view",
      "type": "function"
    },
    {
      "inputs": [],
      "name": "getStaleRateThreshold",
      "outputs": [
        {
          "internalType": "uint256",
          "name": "staleRateThreshold_",
          "type": "uint256"
        }
      ],
      "stateMutability": "view",
      "type": "function"
    },
    {
      "inputs": [
        {
          "internalType": "address",
          "name": "_primitive",
          "type": "address"
        }
      ],
      "name": "getUnitForPrimitive",
      "outputs": [
        {
          "internalType": "uint256",
          "name": "unit_",
          "type": "uint256"
        }
      ],
      "stateMutability": "view",
      "type": "function"
    },
    {
      "inputs": [],
      "name": "getWethToken",
      "outputs": [
        {
          "internalType": "address",
          "name": "wethToken_",
          "type": "address"
        }
      ],
      "stateMutability": "view",
      "type": "function"
    },
    {
      "inputs": [
        {
          "internalType": "address",
          "name": "_asset",
          "type": "address"
        }
      ],
      "name": "isSupportedPrimitiveAsset",
      "outputs": [
        {
          "internalType": "bool",
          "name": "isSupported_",
          "type": "bool"
        }
      ],
      "stateMutability": "view",
      "type": "function"
    }
  ],
  "bytecode": "0x60a060405234801561001057600080fd5b506040516116a13803806116a183398101604081905261002f9161003b565b33608052600055610054565b60006020828403121561004d57600080fd5b5051919050565b60805161162b6100766000396000818161010601526103b1015261162b6000f3fe608060405234801561001057600080fd5b50600436106100a35760003560e01c8063ae6f52ad11610076578063c496f8e81161005b578063c496f8e814610145578063cf0399c814610168578063e2dd09781461017d57600080fd5b8063ae6f52ad1461012a578063b54fbdaa1461013d57600080fd5b80634c252f91146100a857806374626f87146100d2578063787f2568146100e3578063893d20e814610104575b600080fd5b6001546001600160a01b03165b6040516001600160a01b0390911681526020015b60405180910390f35b6002546001600160a01b03166100b5565b6100f66100f13660046110a4565b6101a9565b6040519081526020016100c9565b7f00000000000000000000000000000000000000000000000000000000000000006100b5565b6100f6610138366004611195565b610201565b6000546100f6565b6101586101533660046110a4565b610370565b60405190151581526020016100c9565b61017b6101763660046112b1565b6103a6565b005b6100b561018b3660046110a4565b6001600160a01b039081166000908152600360205260409020541690565b60006101bd6001546001600160a01b031690565b6001600160a01b0316826001600160a01b031614156101e55750670de0b6b3a7640000919050565b506001600160a01b031660009081526004602052604090205490565b6000825184511461027f5760405162461bcd60e51b815260206004820152603560248201527f63616c6343616e6f6e6963616c417373657473546f74616c56616c75653a204160448201527f727261797320756e657175616c206c656e67746873000000000000000000000060648201526084015b60405180910390fd5b61028882610370565b6102fa5760405162461bcd60e51b815260206004820152603660248201527f63616c6343616e6f6e6963616c417373657473546f74616c56616c75653a205560448201527f6e737570706f72746564205f71756f74654173736574000000000000000000006064820152608401610276565b60005b845181101561036757600061034586838151811061031d5761031d61134b565b60200260200101518684815181106103375761033761134b565b60200260200101518661045a565b90506103518382610514565b925050808061035f90611377565b9150506102fd565b505b9392505050565b600080610395836001600160a01b039081166000908152600360205260409020541690565b6001600160a01b0316141592915050565b336001600160a01b037f000000000000000000000000000000000000000000000000000000000000000016146104445760405162461bcd60e51b815260206004820152603060248201527f6f6e6c794f776e65723a204f6e6c7920746865204f776e65722063616e20636160448201527f6c6c20746869732066756e6374696f6e000000000000000000000000000000006064820152608401610276565b610452868686868686610529565b505050505050565b6000816001600160a01b0316846001600160a01b0316148061047a575082155b15610486575081610369565b61048f84610370565b156104a65761049f848484610a32565b9050610369565b60405162461bcd60e51b815260206004820152602860248201527f5f5f63616c63417373657456616c75653a20556e737570706f72746564205f6260448201527f61736541737365740000000000000000000000000000000000000000000000006064820152608401610276565b60006105208284611392565b90505b92915050565b8483146105c45760405162461bcd60e51b815260206004820152604360248201527f5f5f6164645072696d6974697665733a20556e657175616c205f7072696d697460448201527f6976657320616e64205f61676772656761746f7273206172726179206c656e6760648201527f7468730000000000000000000000000000000000000000000000000000000000608482015260a401610276565b84811461065f5760405162461bcd60e51b815260206004820152604260248201527f5f5f6164645072696d6974697665733a20556e657175616c205f7072696d697460448201527f6976657320616e64205f72617465417373657473206172726179206c656e677460648201527f6873000000000000000000000000000000000000000000000000000000000000608482015260a401610276565b60005b85811015610a295760006106968888848181106106815761068161134b565b905060200201602081019061018b91906110a4565b6001600160a01b0316146107125760405162461bcd60e51b815260206004820152602260248201527f5f5f6164645072696d6974697665733a2056616c756520616c7265616479207360448201527f65740000000000000000000000000000000000000000000000000000000000006064820152608401610276565b6107418585838181106107275761072761134b565b905060200201602081019061073c91906110a4565b610b50565b604051806040016040528086868481811061075e5761075e61134b565b905060200201602081019061077391906110a4565b6001600160a01b031681526020018484848181106107935761079361134b565b90506020020160208101906107a891906113aa565b60018111156107b9576107b96113cb565b9052600360008989858181106107d1576107d161134b565b90506020020160208101906107e691906110a4565b6001600160a01b03908116825260208083019390935260409091016000208351815492167fffffffffffffffffffffffff0000000000000000000000000000000000000000831681178255928401519092909183917fffffffffffffffffffffff00000000000000000000000000000000000000000090911617600160a01b836001811115610877576108776113cb565b021790555090505060008787838181106108935761089361134b565b90506020020160208101906108a891906110a4565b6001600160a01b031663313ce5676040518163ffffffff1660e01b8152600401602060405180830381865afa1580156108e5573d6000803e3d6000fd5b505050506040513d601f19601f8201168201806040525081019061090991906113e1565b6109179060ff16600a6114e8565b905080600460008a8a868181106109305761093061134b565b905060200201602081019061094591906110a4565b6001600160a01b031681526020810191909152604001600020558787838181106109715761097161134b565b905060200201602081019061098691906110a4565b6001600160a01b03167f742bdf00da3d8f16c0fab93ce38eb6a536a019c9e283888dd44c3a08c0148c028787858181106109c2576109c261134b565b90506020020160208101906109d791906110a4565b8686868181106109e9576109e961134b565b90506020020160208101906109fe91906113aa565b84604051610a0e939291906114f4565b60405180910390a25080610a2181611377565b915050610662565b50505050505050565b600080610a3e85610c40565b905060008113610ab65760405162461bcd60e51b815260206004820152602d60248201527f5f5f63616c6343616e6f6e6963616c56616c75653a20496e76616c696420626160448201527f73652061737365742072617465000000000000000000000000000000000000006064820152608401610276565b6000610ac184610c40565b905060008113610b395760405162461bcd60e51b815260206004820152602e60248201527f5f5f63616c6343616e6f6e6963616c56616c75653a20496e76616c696420717560448201527f6f746520617373657420726174650000000000000000000000000000000000006064820152608401610276565b610b468686848785610d62565b9695505050505050565b600080826001600160a01b031663feaf968c6040518163ffffffff1660e01b815260040160a060405180830381865afa158015610b91573d6000803e3d6000fd5b505050506040513d601f19601f82011682018060405250810190610bb5919061154d565b5093505092505060008213610c325760405162461bcd60e51b815260206004820152602660248201527f5f5f76616c696461746541676772656761746f723a204e6f207261746520646560448201527f74656374656400000000000000000000000000000000000000000000000000006064820152608401610276565b610c3b81610f46565b505050565b600080610c65836001600160a01b039081166000908152600360205260409020541690565b90506001600160a01b038116610ce35760405162461bcd60e51b815260206004820152602d60248201527f5f5f6765744c617465737452617465446174613a205072696d6974697665206460448201527f6f6573206e6f74206578697374000000000000000000000000000000000000006064820152608401610276565b6000816001600160a01b031663feaf968c6040518163ffffffff1660e01b815260040160a060405180830381865afa158015610d23573d6000803e3d6000fd5b505050506040513d601f19601f82011682018060405250810190610d47919061154d565b50919550909250610d5b9150829050610f46565b5050919050565b6001600160a01b03808616600090815260036020526040808220549285168252812054909160ff600160a01b91829004811692919091041682610da4896101a9565b90506000610db1876101a9565b9050826001811115610dc557610dc56113cb565b846001811115610dd757610dd76113cb565b1415610df557610dea89838a848a610fd1565b945050505050610f3d565b600080610e0a6002546001600160a01b031690565b6001600160a01b031663feaf968c6040518163ffffffff1660e01b815260040160a060405180830381865afa158015610e47573d6000803e3d6000fd5b505050506040513d601f19601f82011682018060405250810190610e6b919061154d565b5093505092505060008213610ee85760405162461bcd60e51b815260206004820152602760248201527f5f5f63616c63436f6e76657273696f6e416d6f756e743a20426164206574685560448201527f73642072617465000000000000000000000000000000000000000000000000006064820152608401610276565b610ef181610f46565b6000866001811115610f0557610f056113cb565b1415610f2657610f198b858c868c87610ffa565b9650505050505050610f3d565b610f348b858c868c87611035565b96505050505050505b95945050505050565b610f59610f5260005490565b4290611064565b811015610fce5760405162461bcd60e51b815260206004820152602d60248201527f5f5f76616c69646174655261746549734e6f745374616c653a205374616c652060448201527f72617465206465746563746564000000000000000000000000000000000000006064820152608401610276565b50565b6000610b46610fe08684611070565b610ff485610fee8a89611070565b90611070565b9061107c565b600080611017670de0b6b3a7640000610ff485610fee8c8b611070565b905061102984610ff48981858a611070565b98975050505050505050565b60008061104a83610ff487610fee8c8b611070565b905061102984610ff4898185670de0b6b3a7640000611070565b6000610520828461159d565b600061052082846115b4565b600061052082846115d3565b80356001600160a01b038116811461109f57600080fd5b919050565b6000602082840312156110b657600080fd5b61052082611088565b634e487b7160e01b600052604160045260246000fd5b604051601f8201601f1916810167ffffffffffffffff811182821017156110fe576110fe6110bf565b604052919050565b600067ffffffffffffffff821115611120576111206110bf565b5060051b60200190565b600082601f83011261113b57600080fd5b8135602061115061114b83611106565b6110d5565b82815260059290921b8401810191818101908684111561116f57600080fd5b8286015b8481101561118a5780358352918301918301611173565b509695505050505050565b6000806000606084860312156111aa57600080fd5b833567ffffffffffffffff808211156111c257600080fd5b818601915086601f8301126111d657600080fd5b813560206111e661114b83611106565b82815260059290921b8401810191818101908a84111561120557600080fd5b948201945b8386101561122a5761121b86611088565b8252948201949082019061120a565b9750508701359250508082111561124057600080fd5b5061124d8682870161112a565b92505061125c60408501611088565b90509250925092565b60008083601f84011261127757600080fd5b50813567ffffffffffffffff81111561128f57600080fd5b6020830191508360208260051b85010111156112aa57600080fd5b9250929050565b600080600080600080606087890312156112ca57600080fd5b863567ffffffffffffffff808211156112e257600080fd5b6112ee8a838b01611265565b9098509650602089013591508082111561130757600080fd5b6113138a838b01611265565b9096509450604089013591508082111561132c57600080fd5b5061133989828a01611265565b979a9699509497509295939492505050565b634e487b7160e01b600052603260045260246000fd5b634e487b7160e01b600052601160045260246000fd5b600060001982141561138b5761138b611361565b5060010190565b600082198211156113a5576113a5611361565b500190565b6000602082840312156113bc57600080fd5b81356002811061036957600080fd5b634e487b7160e01b600052602160045260246000fd5b6000602082840312156113f357600080fd5b815160ff8116811461036957600080fd5b600181815b8085111561143f57816000190482111561142557611425611361565b8085161561143257918102915b93841c9390800290611409565b509250929050565b60008261145657506001610523565b8161146357506000610523565b816001811461147957600281146114835761149f565b6001915050610523565b60ff84111561149457611494611361565b50506001821b610523565b5060208310610133831016604e8410600b84101617156114c2575081810a610523565b6114cc8383611404565b80600019048211156114e0576114e0611361565b029392505050565b60006105208383611447565b6001600160a01b0384168152606081016002841061152257634e487b7160e01b600052602160045260246000fd5b602082019390935260400152919050565b805169ffffffffffffffffffff8116811461109f57600080fd5b600080600080600060a0868803121561156557600080fd5b61156e86611533565b945060208601519350604086015192506060860151915061159160808701611533565b90509295509295909350565b6000828210156115af576115af611361565b500390565b60008160001904831182151516156115ce576115ce611361565b500290565b6000826115f057634e487b7160e01b600052601260045260246000fd5b50049056fea2646970667358221220b44c7ecb179cefb94f0deb92a2ad328d64313ef85c4b6b48e15722ea1054b95364736f6c634300080c0033",
  "linkReferences": {},
  "deployedLinkReferences": {}
}