{
  "_format": "hh-sol-artifact-1",
  "contractName": "FundFactory",
  "sourceName": "contracts/flatten/FundFactoryFlattened.sol",
  "abi": [
    {
      "inputs": [
        {
          "internalType": "address",
          "name": "_fundLogicAddress",
          "type": "address"
        },
        {
          "internalType": "address",
          "name": "_usdcToken",
          "type": "address"
        },
        {
          "internalType": "address",
          "name": "_zeroExchange",
          "type": "address"
        }
      ],
      "stateMutability": "nonpayable",
      "type": "constructor"
    },
    {
      "anonymous": false,
      "inputs": [
        {
          "indexed": false,
          "internalType": "address",
          "name": "creator",
          "type": "address"
        },
        {
          "indexed": false,
          "internalType": "address",
          "name": "tokenProxy",
          "type": "address"
        },
        {
          "indexed": false,
          "internalType": "string",
          "name": "tokenName",
          "type": "string"
        },
        {
          "indexed": false,
          "internalType": "string",
          "name": "tokenSymbol",
          "type": "string"
        }
      ],
      "name": "FundProxyDeployed",
      "type": "event"
    },
    {
      "inputs": [
        {
          "internalType": "uint256",
          "name": "_whitelistIndex",
          "type": "uint256"
        },
        {
          "internalType": "string",
          "name": "_name",
          "type": "string"
        },
        {
          "internalType": "string",
          "name": "_symbol",
          "type": "string"
        },
        {
          "internalType": "address",
          "name": "_address",
          "type": "address"
        }
      ],
      "name": "addTokenToWhiteList",
      "outputs": [],
      "stateMutability": "nonpayable",
      "type": "function"
    },
    {
      "inputs": [
        {
          "internalType": "uint256",
          "name": "_fundPaymentFees",
          "type": "uint256"
        },
        {
          "internalType": "uint256",
          "name": "_fundManagmentFees",
          "type": "uint256"
        },
        {
          "internalType": "string",
          "name": "_tokenName",
          "type": "string"
        },
        {
          "internalType": "string",
          "name": "_tokenSymbol",
          "type": "string"
        },
        {
          "internalType": "uint256",
          "name": "_whitelistId",
          "type": "uint256"
        },
        {
          "internalType": "bool",
          "name": "_useWhitelist",
          "type": "bool"
        }
      ],
      "name": "createFund",
      "outputs": [
        {
          "internalType": "address",
          "name": "",
          "type": "address"
        }
      ],
      "stateMutability": "nonpayable",
      "type": "function"
    },
    {
      "inputs": [
        {
          "internalType": "string",
          "name": "_name",
          "type": "string"
        }
      ],
      "name": "createWhitelist",
      "outputs": [
        {
          "internalType": "uint256",
          "name": "",
          "type": "uint256"
        }
      ],
      "stateMutability": "nonpayable",
      "type": "function"
    },
    {
      "inputs": [
        {
          "internalType": "uint256",
          "name": "_whitlistIndex",
          "type": "uint256"
        },
        {
          "internalType": "address",
          "name": "_tokenAddress",
          "type": "address"
        }
      ],
      "name": "doesTokenExist",
      "outputs": [
        {
          "internalType": "bool",
          "name": "",
          "type": "bool"
        }
      ],
      "stateMutability": "view",
      "type": "function"
    },
    {
      "inputs": [],
      "name": "getFactoryInformations",
      "outputs": [
        {
          "internalType": "address",
          "name": "",
          "type": "address"
        },
        {
          "internalType": "address",
          "name": "",
          "type": "address"
        },
        {
          "internalType": "address",
          "name": "",
          "type": "address"
        },
        {
          "internalType": "address",
          "name": "",
          "type": "address"
        },
        {
          "internalType": "uint256",
          "name": "",
          "type": "uint256"
        },
        {
          "internalType": "uint256",
          "name": "",
          "type": "uint256"
        }
      ],
      "stateMutability": "view",
      "type": "function"
    },
    {
      "inputs": [],
      "name": "getFundCount",
      "outputs": [
        {
          "internalType": "uint256",
          "name": "",
          "type": "uint256"
        }
      ],
      "stateMutability": "view",
      "type": "function"
    },
    {
      "inputs": [],
      "name": "getFundLogicAddress",
      "outputs": [
        {
          "internalType": "address",
          "name": "",
          "type": "address"
        }
      ],
      "stateMutability": "view",
      "type": "function"
    },
    {
      "inputs": [],
      "name": "getFundsList",
      "outputs": [
        {
          "internalType": "address[]",
          "name": "",
          "type": "address[]"
        }
      ],
      "stateMutability": "view",
      "type": "function"
    },
    {
      "inputs": [],
      "name": "getUSDCAddress",
      "outputs": [
        {
          "internalType": "address",
          "name": "",
          "type": "address"
        }
      ],
      "stateMutability": "view",
      "type": "function"
    },
    {
      "inputs": [
        {
          "internalType": "uint256",
          "name": "_index",
          "type": "uint256"
        }
      ],
      "name": "getWhiteList",
      "outputs": [
        {
          "internalType": "uint256",
          "name": "",
          "type": "uint256"
        },
        {
          "internalType": "string",
          "name": "",
          "type": "string"
        },
        {
          "internalType": "address",
          "name": "",
          "type": "address"
        },
        {
          "internalType": "string",
          "name": "",
          "type": "string"
        },
        {
          "internalType": "string[]",
          "name": "",
          "type": "string[]"
        },
        {
          "internalType": "string[]",
          "name": "",
          "type": "string[]"
        },
        {
          "internalType": "address[]",
          "name": "",
          "type": "address[]"
        }
      ],
      "stateMutability": "view",
      "type": "function"
    },
    {
      "inputs": [],
      "name": "getWhiteLists",
      "outputs": [
        {
          "internalType": "uint256[]",
          "name": "",
          "type": "uint256[]"
        },
        {
          "internalType": "string[]",
          "name": "",
          "type": "string[]"
        },
        {
          "internalType": "address[]",
          "name": "",
          "type": "address[]"
        },
        {
          "internalType": "uint256[]",
          "name": "",
          "type": "uint256[]"
        },
        {
          "internalType": "string[]",
          "name": "",
          "type": "string[]"
        }
      ],
      "stateMutability": "view",
      "type": "function"
    },
    {
      "inputs": [],
      "name": "getWhitelistCount",
      "outputs": [
        {
          "internalType": "uint256",
          "name": "",
          "type": "uint256"
        }
      ],
      "stateMutability": "view",
      "type": "function"
    },
    {
      "inputs": [],
      "name": "owner",
      "outputs": [
        {
          "internalType": "address",
          "name": "",
          "type": "address"
        }
      ],
      "stateMutability": "view",
      "type": "function"
    },
    {
      "inputs": [
        {
          "internalType": "uint256",
          "name": "_whitelistIndex",
          "type": "uint256"
        },
        {
          "internalType": "address",
          "name": "_addressToken",
          "type": "address"
        }
      ],
      "name": "removeToken",
      "outputs": [
        {
          "internalType": "bool",
          "name": "",
          "type": "bool"
        }
      ],
      "stateMutability": "nonpayable",
      "type": "function"
    },
    {
      "inputs": [
        {
          "internalType": "uint256",
          "name": "",
          "type": "uint256"
        }
      ],
      "name": "whitelistStructs",
      "outputs": [
        {
          "internalType": "uint256",
          "name": "index",
          "type": "uint256"
        },
        {
          "internalType": "string",
          "name": "name",
          "type": "string"
        },
        {
          "internalType": "address",
          "name": "listOwner",
          "type": "address"
        }
      ],
      "stateMutability": "view",
      "type": "function"
    },
    {
      "inputs": [],
      "name": "withdrawFees",
      "outputs": [],
      "stateMutability": "nonpayable",
      "type": "function"
    }
  ],
  "bytecode": "0x6101006040523480156200001257600080fd5b5060405162002c8a38038062002c8a833981016040819052620000359162000074565b6001600160a01b0392831660805290821660a0523360c0521660e052620000be565b80516001600160a01b03811681146200006f57600080fd5b919050565b6000806000606084860312156200008a57600080fd5b620000958462000057565b9250620000a56020850162000057565b9150620000b56040850162000057565b90509250925092565b60805160a05160c05160e051612b53620001376000396000610c800152600081816102120152818161066b015281816107a201526118ad0152600081816102650152818161071501528181610c5f0152818161188c01526118eb0152600081816101b701528181610c33015261186b0152612b536000f3fe60806040523480156200001157600080fd5b5060043610620001155760003560e01c806377e7114611620000a3578063d7651453116200006e578063d7651453146200028a578063e2c7d4e414620002d7578063ea44ab6314620002ee578063fb8b20af146200031657600080fd5b806377e7114614620001f95780638da5cb5b1462000210578063aa44a6b51462000237578063bc06e81d146200026357600080fd5b8063477e26ef11620000e4578063477e26ef146200016e57806347fde5fe14620001855780636867abc514620001b557806369fb33c214620001dc57600080fd5b806311648a4d146200011a57806333fe567614620001315780633edff20f1462000159578063476343ee1462000162575b600080fd5b6000545b6040519081526020015b60405180910390f35b620001486200014236600462001fcf565b6200032f565b604051901515815260200162000128565b6002546200011e565b6200016c62000660565b005b6200016c6200017f366004620020a9565b620007cc565b6200019c620001963660046200213f565b62000b7d565b6040516001600160a01b03909116815260200162000128565b7f00000000000000000000000000000000000000000000000000000000000000006200019c565b620001e662000de8565b604051620001289594939291906200230e565b6200011e6200020a36600462002385565b62001252565b7f00000000000000000000000000000000000000000000000000000000000000006200019c565b6200024e62000248366004620023c6565b6200133e565b604051620001289796959493929190620023e0565b7f00000000000000000000000000000000000000000000000000000000000000006200019c565b620002946200185f565b604080516001600160a01b03978816815295871660208701529386169385019390935293166060830152608082019290925260a081019190915260c00162000128565b62000148620002e836600462001fcf565b62001974565b62000305620002ff366004620023c6565b620019fb565b60405162000128939291906200246e565b6200032062001ab6565b604051620001289190620024a2565b60008281526001602052604081206005015483906001600160a01b03163314620003c65760405162461bcd60e51b815260206004820152602f60248201527f4f6e6c79207468652077686974656c697374206f776e65722063616e2063616c60448201527f6c20746869732066756e6374696f6e000000000000000000000000000000000060648201526084015b60405180910390fd5b60008481526001602081905260408220018054620003e490620024b7565b905011620004475760405162461bcd60e51b815260206004820152602960248201527f74686520696e646578206d757374206265206f662061206578697374696e67206044820152681dda1a5d195b1a5cdd60ba1b6064820152608401620003bd565b60008481526001602081815260408084206001600160a01b03881685526003810183529084205488855292909152600201805491929183908110620004905762000490620024f4565b600091825260208083206002600490930201820154898452600191829052604090932090910180546001600160a01b03909316935091620004d2919062002520565b81548110620004e557620004e5620024f4565b90600052602060002090600402016001600088815260200190815260200160002060020183815481106200051d576200051d620024f4565b906000526020600020906004020160008201816000019080546200054190620024b7565b6200054e92919062001e38565b5060018201816001019080546200056590620024b7565b6200057292919062001e38565b5060028281015482820180546001600160a01b0319166001600160a01b039092169190911790556003928301549290910191909155600087815260016020526040902001805480620005c857620005c86200253a565b60008281526020812060001990920191600483020190620005ea828262001ece565b620005fa60018301600062001ece565b506002810180546001600160a01b03191690556000600391820181905591909255968752600160208181526040808a206001600160a01b039586168b529384018252808a2095909555969092168752600401909452909320805460ff1916905550919050565b336001600160a01b037f00000000000000000000000000000000000000000000000000000000000000001614620007005760405162461bcd60e51b815260206004820152602e60248201527f4f6e6c792074686520636f6e7472616374206f776e65722063616e2063616c6c60448201527f20746869732066756e6374696f6e0000000000000000000000000000000000006064820152608401620003bd565b6040516370a0823160e01b81523060048201527f0000000000000000000000000000000000000000000000000000000000000000906000906001600160a01b038316906370a0823190602401602060405180830381865afa1580156200076a573d6000803e3d6000fd5b505050506040513d601f19601f8201168201806040525081019062000790919062002550565b9050620007c86001600160a01b0383167f00000000000000000000000000000000000000000000000000000000000000008362001b1a565b5050565b60008481526001602052604090206005015484906001600160a01b031633146200085f5760405162461bcd60e51b815260206004820152602f60248201527f4f6e6c79207468652077686974656c697374206f776e65722063616e2063616c60448201527f6c20746869732066756e6374696f6e00000000000000000000000000000000006064820152608401620003bd565b600085815260016020819052604082200180546200087d90620024b7565b905011620008e05760405162461bcd60e51b815260206004820152602960248201527f74686520696e646578206d757374206265206f662061206578697374696e67206044820152681dda1a5d195b1a5cdd60ba1b6064820152608401620003bd565b6000845111620009335760405162461bcd60e51b815260206004820152601b60248201527f546865206c656e677468206e616d65206d757374206265203e203000000000006044820152606401620003bd565b6000835111620009865760405162461bcd60e51b815260206004820152601d60248201527f546865206c656e6774682073796d626f6c206d757374206265203e20300000006044820152606401620003bd565b6001600160a01b038216620009de5760405162461bcd60e51b815260206004820152601e60248201527f54686520746f6b656e2061646472657373206973206d616e6461746f727900006044820152606401620003bd565b60008581526001602090815260408083206001600160a01b038616845260040190915290205460ff161562000a565760405162461bcd60e51b815260206004820152601e60248201527f546f6b656e20616c726561647920696e207468652077686974656c69737400006044820152606401620003bd565b6040805160808101825285815260208082018690526001600160a01b038516828401526000888152600180835293812060020180546060850181905285845294850181558152819020825180519394859460049091029092019262000ac19284929091019062001f10565b50602082810151805162000adc926001850192019062001f10565b50604082810151600283810180546001600160a01b0319166001600160a01b03909316929092179091556060909301516003909201919091556000888152600160208190529190209091015462000b34919062002520565b6000968752600160208181526040808a206001600160a01b03979097168a52600387018252808a20939093556004909501909452909520805460ff191690921790915550505050565b60008085511162000bd15760405162461bcd60e51b815260206004820152601560248201527f546865206e616d65206973206d616e6461746f727900000000000000000000006044820152606401620003bd565b600084511162000c245760405162461bcd60e51b815260206004820152601860248201527f5468652073796d626f6c65206973206d616e6461746f727900000000000000006044820152606401620003bd565b8162000c2f57600092505b60007f000000000000000000000000000000000000000000000000000000000000000063f56ae74e60e01b338a8a7f00000000000000000000000000000000000000000000000000000000000000007f00000000000000000000000000000000000000000000000000000000000000008c8c8c8c60405160240162000cbd999897969594939291906200256a565b60408051601f198184030181529181526020820180517bffffffffffffffffffffffffffffffffffffffffffffffffffffffff167fffffffff0000000000000000000000000000000000000000000000000000000090941693909317909252905162000d299062001f8d565b62000d36929190620025e2565b604051809103906000f08015801562000d53573d6000803e3d6000fd5b5090507f39f9678da41ac99953493575215f3f3b055f9aa26aa4c4bad9079a8449f48f713382888860405162000d8d949392919062002606565b60405180910390a1600080546001810182559080527f290decd9548b62a8d60345a988386fc84ba6bc95484008f6362f93160ef3e5630180546001600160a01b0319166001600160a01b038316179055979650505050505050565b6060806060806060600062000dfc60025490565b905060008167ffffffffffffffff81111562000e1c5762000e1c62001ffe565b60405190808252806020026020018201604052801562000e46578160200160208202803683370190505b50905060008267ffffffffffffffff81111562000e675762000e6762001ffe565b60405190808252806020026020018201604052801562000e9c57816020015b606081526020019060019003908162000e865790505b50905060008367ffffffffffffffff81111562000ebd5762000ebd62001ffe565b60405190808252806020026020018201604052801562000ee7578160200160208202803683370190505b50905060008467ffffffffffffffff81111562000f085762000f0862001ffe565b60405190808252806020026020018201604052801562000f32578160200160208202803683370190505b50905060008567ffffffffffffffff81111562000f535762000f5362001ffe565b60405190808252806020026020018201604052801562000f8857816020015b606081526020019060019003908162000f725790505b50905060005b868110156200123f5760006002828154811062000faf5762000faf620024f4565b90600052602060002001549050600160008281526020019081526020016000206000015487838151811062000fe85762000fe8620024f4565b6020026020010181815250506001600082815260200190815260200160002060010180546200101790620024b7565b80601f01602080910402602001604051908101604052809291908181526020018280546200104590620024b7565b8015620010965780601f106200106a5761010080835404028352916020019162001096565b820191906000526020600020905b8154815290600101906020018083116200107857829003601f168201915b5050505050868381518110620010b057620010b0620024f4565b60200260200101819052506001600082815260200190815260200160002060050160009054906101000a90046001600160a01b0316858381518110620010fa57620010fa620024f4565b6001600160a01b0390921660209283029190910182015260008281526001909152604090206002015484518590849081106200113a576200113a620024f4565b602002602001018181525050606060005b600083815260016020526040902060020154811015620012055780156200119157816040516020016200117f919062002648565b60405160208183030381529060405291505b6000838152600160205260409020600201805483919083908110620011ba57620011ba620024f4565b9060005260206000209060040201600101604051602001620011de9291906200268b565b60405160208183030381529060405291508080620011fc9062002746565b9150506200114b565b50808484815181106200121c576200121c620024f4565b602002602001018190525050508080620012369062002746565b91505062000f8e565b50939a9299509097509550909350915050565b600080825111620012a65760405162461bcd60e51b815260206004820152601560248201527f546865206e616d65206973206d616e6461746f727900000000000000000000006044820152606401620003bd565b600254600090620012b990600162002764565b60008181526001602081815260409092208381558651939450620012e39391019186019062001f10565b506000818152600160208190526040822060050180546001600160a01b031916331790556002805491820181559091527f405787fa12a823e0f2b7631cc41b3ba8828b3321ca811111fa75cd3aa3bb5ace0181905592915050565b60008181526001602081905260408220805491018054606092849284928392839283928a929188916200137190620024b7565b80601f01602080910402602001604051908101604052809291908181526020018280546200139f90620024b7565b8015620013f05780601f10620013c457610100808354040283529160200191620013f0565b820191906000526020600020905b815481529060010190602001808311620013d257829003601f168201915b50505060008e81526001602052604080822060050154888352908220600201549495506001600160a01b0316936060935090915067ffffffffffffffff8111156200143f576200143f62001ffe565b6040519080825280602002602001820160405280156200147457816020015b60608152602001906001900390816200145e5790505b506000878152600160205260408120600201549192509067ffffffffffffffff811115620014a657620014a662001ffe565b604051908082528060200260200182016040528015620014db57816020015b6060815260200190600190039081620014c55790505b506000888152600160205260408120600201549192509067ffffffffffffffff8111156200150d576200150d62001ffe565b60405190808252806020026020018201604052801562001537578160200160208202803683370190505b50905060005b6000898152600160205260409020600201548110156200184657801562001583578460405160200162001571919062002648565b60405160208183030381529060405294505b6000898152600160205260409020600201805486919083908110620015ac57620015ac620024f4565b9060005260206000209060040201600101604051602001620015d09291906200268b565b60408051601f1981840301815291815260008b815260016020522060020180549196509082908110620016075762001607620024f4565b906000526020600020906004020160000180546200162590620024b7565b80601f01602080910402602001604051908101604052809291908181526020018280546200165390620024b7565b8015620016a45780601f106200167857610100808354040283529160200191620016a4565b820191906000526020600020905b8154815290600101906020018083116200168657829003601f168201915b5050505050848281518110620016be57620016be620024f4565b6020026020010181905250600160008a81526020019081526020016000206002018181548110620016f357620016f3620024f4565b906000526020600020906004020160010180546200171190620024b7565b80601f01602080910402602001604051908101604052809291908181526020018280546200173f90620024b7565b8015620017905780601f10620017645761010080835404028352916020019162001790565b820191906000526020600020905b8154815290600101906020018083116200177257829003601f168201915b5050505050838281518110620017aa57620017aa620024f4565b6020026020010181905250600160008a81526020019081526020016000206002018181548110620017df57620017df620024f4565b906000526020600020906004020160020160009054906101000a90046001600160a01b0316828281518110620018195762001819620024f4565b6001600160a01b0390921660209283029190910190910152806200183d8162002746565b9150506200153d565b50959f949e50929c50909a509850965090945092505050565b600080600080600080307f00000000000000000000000000000000000000000000000000000000000000007f00000000000000000000000000000000000000000000000000000000000000007f0000000000000000000000000000000000000000000000000000000000000000620018d660005490565b6040516370a0823160e01b81523060048201527f00000000000000000000000000000000000000000000000000000000000000006001600160a01b0316906370a0823190602401602060405180830381865afa1580156200193b573d6000803e3d6000fd5b505050506040513d601f19601f8201168201806040525081019062001961919062002550565b949b939a50919850965094509092509050565b60008281526001602081815260408084206001600160a01b03861685526003810183529084205486855292909152600201805483919083908110620019bd57620019bd620024f4565b90600052602060002090600402016000018054620019db90620024b7565b90501115620019ef576001915050620019f5565b60009150505b92915050565b60016020819052600091825260409091208054918101805462001a1e90620024b7565b80601f016020809104026020016040519081016040528092919081815260200182805462001a4c90620024b7565b801562001a9d5780601f1062001a715761010080835404028352916020019162001a9d565b820191906000526020600020905b81548152906001019060200180831162001a7f57829003601f168201915b505050600590930154919250506001600160a01b031683565b6060600080548060200260200160405190810160405280929190818152602001828054801562001b1057602002820191906000526020600020905b81546001600160a01b0316815260019091019060200180831162001af1575b5050505050905090565b604080516001600160a01b038416602482015260448082018490528251808303909101815260649091019091526020810180517bffffffffffffffffffffffffffffffffffffffffffffffffffffffff167fa9059cbb0000000000000000000000000000000000000000000000000000000017905262001b9c90849062001ba1565b505050565b600062001bf8826040518060400160405280602081526020017f5361666545524332303a206c6f772d6c6576656c2063616c6c206661696c6564815250856001600160a01b031662001c8d9092919063ffffffff16565b80519091501562001b9c578080602001905181019062001c1991906200277f565b62001b9c5760405162461bcd60e51b815260206004820152602a60248201527f5361666545524332303a204552433230206f7065726174696f6e20646964206e60448201527f6f742073756363656564000000000000000000000000000000000000000000006064820152608401620003bd565b606062001c9e848460008562001ca8565b90505b9392505050565b60608247101562001d225760405162461bcd60e51b815260206004820152602660248201527f416464726573733a20696e73756666696369656e742062616c616e636520666f60448201527f722063616c6c00000000000000000000000000000000000000000000000000006064820152608401620003bd565b6001600160a01b0385163b62001d7b5760405162461bcd60e51b815260206004820152601d60248201527f416464726573733a2063616c6c20746f206e6f6e2d636f6e74726163740000006044820152606401620003bd565b600080866001600160a01b0316858760405162001d9991906200279f565b60006040518083038185875af1925050503d806000811462001dd8576040519150601f19603f3d011682016040523d82523d6000602084013e62001ddd565b606091505b509150915062001def82828662001dfa565b979650505050505050565b6060831562001e0b57508162001ca1565b82511562001e1c5782518084602001fd5b8160405162461bcd60e51b8152600401620003bd9190620027bd565b82805462001e4690620024b7565b90600052602060002090601f01602090048101928262001e6a576000855562001ebc565b82601f1062001e7d578054855562001ebc565b8280016001018555821562001ebc57600052602060002091601f016020900482015b8281111562001ebc57825482559160010191906001019062001e9f565b5062001eca92915062001f9b565b5090565b50805462001edc90620024b7565b6000825580601f1062001eed575050565b601f01602090049060005260206000209081019062001f0d919062001f9b565b50565b82805462001f1e90620024b7565b90600052602060002090601f01602090048101928262001f42576000855562001ebc565b82601f1062001f5d57805160ff191683800117855562001ebc565b8280016001018555821562001ebc579182015b8281111562001ebc57825182559160200191906001019062001f70565b61034b80620027d383390190565b5b8082111562001eca576000815560010162001f9c565b80356001600160a01b038116811462001fca57600080fd5b919050565b6000806040838503121562001fe357600080fd5b8235915062001ff56020840162001fb2565b90509250929050565b634e487b7160e01b600052604160045260246000fd5b600082601f8301126200202657600080fd5b813567ffffffffffffffff8082111562002044576200204462001ffe565b604051601f8301601f19908116603f011681019082821181831017156200206f576200206f62001ffe565b816040528381528660208588010111156200208957600080fd5b836020870160208301376000602085830101528094505050505092915050565b60008060008060808587031215620020c057600080fd5b84359350602085013567ffffffffffffffff80821115620020e057600080fd5b620020ee8883890162002014565b945060408701359150808211156200210557600080fd5b50620021148782880162002014565b925050620021256060860162001fb2565b905092959194509250565b801515811462001f0d57600080fd5b60008060008060008060c087890312156200215957600080fd5b8635955060208701359450604087013567ffffffffffffffff808211156200218057600080fd5b6200218e8a838b0162002014565b95506060890135915080821115620021a557600080fd5b50620021b489828a0162002014565b9350506080870135915060a0870135620021ce8162002130565b809150509295509295509295565b600081518084526020808501945080840160005b838110156200220e57815187529582019590820190600101620021f0565b509495945050505050565b60005b83811015620022365781810151838201526020016200221c565b8381111562002246576000848401525b50505050565b600081518084526200226681602086016020860162002219565b601f01601f19169290920160200192915050565b600081518084526020808501808196508360051b8101915082860160005b85811015620022c6578284038952620022b38483516200224c565b9885019893509084019060010162002298565b5091979650505050505050565b600081518084526020808501945080840160005b838110156200220e5781516001600160a01b031687529582019590820190600101620022e7565b60a0815260006200232360a0830188620021dc565b82810360208401526200233781886200227a565b905082810360408401526200234d8187620022d3565b90508281036060840152620023638186620021dc565b905082810360808401526200237981856200227a565b98975050505050505050565b6000602082840312156200239857600080fd5b813567ffffffffffffffff811115620023b057600080fd5b620023be8482850162002014565b949350505050565b600060208284031215620023d957600080fd5b5035919050565b87815260e060208201526000620023fb60e08301896200224c565b6001600160a01b038816604084015282810360608401526200241e81886200224c565b905082810360808401526200243481876200227a565b905082810360a08401526200244a81866200227a565b905082810360c0840152620024608185620022d3565b9a9950505050505050505050565b8381526060602082015260006200248960608301856200224c565b90506001600160a01b0383166040830152949350505050565b60208152600062001ca16020830184620022d3565b600181811c90821680620024cc57607f821691505b60208210811415620024ee57634e487b7160e01b600052602260045260246000fd5b50919050565b634e487b7160e01b600052603260045260246000fd5b634e487b7160e01b600052601160045260246000fd5b6000828210156200253557620025356200250a565b500390565b634e487b7160e01b600052603160045260246000fd5b6000602082840312156200256357600080fd5b5051919050565b60006101206001600160a01b03808d1684528b60208501528a6040850152808a1660608501528089166080850152508060a0840152620025ad818401886200224c565b905082810360c0840152620025c381876200224c565b60e0840195909552505090151561010090910152979650505050505050565b6001600160a01b038316815260406020820152600062001c9e60408301846200224c565b60006001600160a01b038087168352808616602084015250608060408301526200263460808301856200224c565b828103606084015262001def81856200224c565b600082516200265c81846020870162002219565b7f2c00000000000000000000000000000000000000000000000000000000000000920191825250600101919050565b600083516020620026a0828583890162002219565b845491840191600090600181811c9080831680620026bf57607f831692505b858310811415620026de57634e487b7160e01b85526022600452602485fd5b808015620026f55760018114620027075762002736565b60ff1985168852838801955062002736565b60008b81526020902060005b858110156200272e5781548a82015290840190880162002713565b505083880195505b50939a9950505050505050505050565b60006000198214156200275d576200275d6200250a565b5060010190565b600082198211156200277a576200277a6200250a565b500190565b6000602082840312156200279257600080fd5b815162001ca18162002130565b60008251620027b381846020870162002219565b9190910192915050565b60208152600062001ca160208301846200224c56fe608060405234801561001057600080fd5b5060405161034b38038061034b83398101604081905261002f9161011b565b600080546001600160a01b0319166001600160a01b038416908117825560405182919061005d9085906101e9565b600060405180830381855af49150503d8060008114610098576040519150601f19603f3d011682016040523d82523d6000602084013e61009d565b606091505b50915091508181906100cb5760405162461bcd60e51b81526004016100c29190610205565b60405180910390fd5b5050505050610238565b634e487b7160e01b600052604160045260246000fd5b60005b838110156101065781810151838201526020016100ee565b83811115610115576000848401525b50505050565b6000806040838503121561012e57600080fd5b82516001600160a01b038116811461014557600080fd5b60208401519092506001600160401b038082111561016257600080fd5b818501915085601f83011261017657600080fd5b815181811115610188576101886100d5565b604051601f8201601f19908116603f011681019083821181831017156101b0576101b06100d5565b816040528281528860208487010111156101c957600080fd5b6101da8360208301602088016100eb565b80955050505050509250929050565b600082516101fb8184602087016100eb565b9190910192915050565b60208152600082518060208401526102248160408501602087016100eb565b601f01601f19169190910160400192915050565b610104806102476000396000f3fe608060405260043610601f5760003560e01c8063abdd707414603157602b565b36602b5760296085565b005b60296085565b348015603c57600080fd5b50600054605c9073ffffffffffffffffffffffffffffffffffffffff1681565b60405173ffffffffffffffffffffffffffffffffffffffff909116815260200160405180910390f35b60a960a560005473ffffffffffffffffffffffffffffffffffffffff1690565b60ab565b565b3660008037600080366000845af43d6000803e80801560c9573d6000f35b3d6000fdfea2646970667358221220e2e8db8149ad1addf83732a7cf15a7a8acc6c66e74e76c4f57f61ba6fc9c074b64736f6c634300080c0033a2646970667358221220dfb3a6cbaaa3194ced3e59709bed3b9840cf1280198d09b5c18188e0f5029f4664736f6c634300080c0033",
  "linkReferences": {},
  "deployedLinkReferences": {}
}