{
  "_format": "hh-sol-artifact-1",
  "contractName": "FundProxy",
  "sourceName": "contracts/flatten/FundFactoryFlattened.sol",
  "abi": [
    {
      "inputs": [
        {
          "internalType": "address",
          "name": "_fundLogic",
          "type": "address"
        },
        {
          "internalType": "bytes",
          "name": "_data",
          "type": "bytes"
        }
      ],
      "stateMutability": "nonpayable",
      "type": "constructor"
    },
    {
      "stateMutability": "payable",
      "type": "fallback"
    },
    {
      "inputs": [],
      "name": "FundLogic",
      "outputs": [
        {
          "internalType": "address",
          "name": "",
          "type": "address"
        }
      ],
      "stateMutability": "view",
      "type": "function"
    },
    {
      "stateMutability": "payable",
      "type": "receive"
    }
  ],
  "bytecode": "0x608060405234801561001057600080fd5b5060405161034b38038061034b83398101604081905261002f9161011b565b600080546001600160a01b0319166001600160a01b038416908117825560405182919061005d9085906101e9565b600060405180830381855af49150503d8060008114610098576040519150601f19603f3d011682016040523d82523d6000602084013e61009d565b606091505b50915091508181906100cb5760405162461bcd60e51b81526004016100c29190610205565b60405180910390fd5b5050505050610238565b634e487b7160e01b600052604160045260246000fd5b60005b838110156101065781810151838201526020016100ee565b83811115610115576000848401525b50505050565b6000806040838503121561012e57600080fd5b82516001600160a01b038116811461014557600080fd5b60208401519092506001600160401b038082111561016257600080fd5b818501915085601f83011261017657600080fd5b815181811115610188576101886100d5565b604051601f8201601f19908116603f011681019083821181831017156101b0576101b06100d5565b816040528281528860208487010111156101c957600080fd5b6101da8360208301602088016100eb565b80955050505050509250929050565b600082516101fb8184602087016100eb565b9190910192915050565b60208152600082518060208401526102248160408501602087016100eb565b601f01601f19169190910160400192915050565b610104806102476000396000f3fe608060405260043610601f5760003560e01c8063abdd707414603157602b565b36602b5760296085565b005b60296085565b348015603c57600080fd5b50600054605c9073ffffffffffffffffffffffffffffffffffffffff1681565b60405173ffffffffffffffffffffffffffffffffffffffff909116815260200160405180910390f35b60a960a560005473ffffffffffffffffffffffffffffffffffffffff1690565b60ab565b565b3660008037600080366000845af43d6000803e80801560c9573d6000f35b3d6000fdfea2646970667358221220e2e8db8149ad1addf83732a7cf15a7a8acc6c66e74e76c4f57f61ba6fc9c074b64736f6c634300080c0033",
  "linkReferences": {},
  "deployedLinkReferences": {}
}