{
  "_format": "hh-sol-artifact-1",
  "contractName": "FundFactory",
  "sourceName": "contracts/factory/FundFactory.sol",
  "abi": [
    {
      "inputs": [
        {
          "internalType": "address",
          "name": "_fundLogicAddress",
          "type": "address"
        },
        {
          "internalType": "address",
          "name": "_denominationToken",
          "type": "address"
        },
        {
          "internalType": "address",
          "name": "_zeroExchange",
          "type": "address"
        },
        {
          "internalType": "address",
          "name": "_valueInterpreter",
          "type": "address"
        }
      ],
      "stateMutability": "nonpayable",
      "type": "constructor"
    },
    {
      "anonymous": false,
      "inputs": [
        {
          "indexed": false,
          "internalType": "address",
          "name": "creator",
          "type": "address"
        },
        {
          "indexed": false,
          "internalType": "address",
          "name": "tokenProxy",
          "type": "address"
        },
        {
          "indexed": false,
          "internalType": "string",
          "name": "tokenName",
          "type": "string"
        },
        {
          "indexed": false,
          "internalType": "string",
          "name": "tokenSymbol",
          "type": "string"
        }
      ],
      "name": "FundProxyDeployed",
      "type": "event"
    },
    {
      "anonymous": false,
      "inputs": [
        {
          "indexed": false,
          "internalType": "uint256",
          "name": "whitelistIndex",
          "type": "uint256"
        },
        {
          "indexed": false,
          "internalType": "string",
          "name": "tokenName",
          "type": "string"
        },
        {
          "indexed": false,
          "internalType": "string",
          "name": "tokenSymbol",
          "type": "string"
        },
        {
          "indexed": false,
          "internalType": "address",
          "name": "tokenAddress",
          "type": "address"
        }
      ],
      "name": "TokenAddedInWhitelist",
      "type": "event"
    },
    {
      "anonymous": false,
      "inputs": [
        {
          "indexed": false,
          "internalType": "uint256",
          "name": "index",
          "type": "uint256"
        },
        {
          "indexed": false,
          "internalType": "string",
          "name": "name",
          "type": "string"
        }
      ],
      "name": "WhiteListCreated",
      "type": "event"
    },
    {
      "inputs": [
        {
          "internalType": "uint256",
          "name": "_whitelistIndex",
          "type": "uint256"
        },
        {
          "internalType": "string",
          "name": "_name",
          "type": "string"
        },
        {
          "internalType": "string",
          "name": "_symbol",
          "type": "string"
        },
        {
          "internalType": "address",
          "name": "_address",
          "type": "address"
        }
      ],
      "name": "addTokenToWhiteList",
      "outputs": [],
      "stateMutability": "nonpayable",
      "type": "function"
    },
    {
      "inputs": [
        {
          "internalType": "uint256",
          "name": "_fundPaymentFees",
          "type": "uint256"
        },
        {
          "internalType": "uint256",
          "name": "_fundManagmentFees",
          "type": "uint256"
        },
        {
          "internalType": "string",
          "name": "_tokenName",
          "type": "string"
        },
        {
          "internalType": "string",
          "name": "_tokenSymbol",
          "type": "string"
        },
        {
          "internalType": "uint256",
          "name": "_whitelistId",
          "type": "uint256"
        },
        {
          "internalType": "bool",
          "name": "_useWhitelist",
          "type": "bool"
        },
        {
          "internalType": "bool",
          "name": "_useAllowedInvestor",
          "type": "bool"
        }
      ],
      "name": "createFund",
      "outputs": [
        {
          "internalType": "address",
          "name": "",
          "type": "address"
        }
      ],
      "stateMutability": "nonpayable",
      "type": "function"
    },
    {
      "inputs": [
        {
          "internalType": "string",
          "name": "_name",
          "type": "string"
        }
      ],
      "name": "createWhitelist",
      "outputs": [
        {
          "internalType": "uint256",
          "name": "",
          "type": "uint256"
        }
      ],
      "stateMutability": "nonpayable",
      "type": "function"
    },
    {
      "inputs": [
        {
          "internalType": "uint256",
          "name": "_whitlistIndex",
          "type": "uint256"
        },
        {
          "internalType": "address",
          "name": "_tokenAddress",
          "type": "address"
        }
      ],
      "name": "doesTokenExist",
      "outputs": [
        {
          "internalType": "bool",
          "name": "",
          "type": "bool"
        }
      ],
      "stateMutability": "view",
      "type": "function"
    },
    {
      "inputs": [],
      "name": "getDenominationTokenAddress",
      "outputs": [
        {
          "internalType": "address",
          "name": "",
          "type": "address"
        }
      ],
      "stateMutability": "view",
      "type": "function"
    },
    {
      "inputs": [],
      "name": "getFactoryInformations",
      "outputs": [
        {
          "internalType": "address",
          "name": "",
          "type": "address"
        },
        {
          "internalType": "address",
          "name": "",
          "type": "address"
        },
        {
          "internalType": "address",
          "name": "",
          "type": "address"
        },
        {
          "internalType": "address",
          "name": "",
          "type": "address"
        },
        {
          "internalType": "uint256",
          "name": "",
          "type": "uint256"
        },
        {
          "internalType": "uint256",
          "name": "",
          "type": "uint256"
        }
      ],
      "stateMutability": "view",
      "type": "function"
    },
    {
      "inputs": [],
      "name": "getFundCount",
      "outputs": [
        {
          "internalType": "uint256",
          "name": "",
          "type": "uint256"
        }
      ],
      "stateMutability": "view",
      "type": "function"
    },
    {
      "inputs": [],
      "name": "getFundLogicAddress",
      "outputs": [
        {
          "internalType": "address",
          "name": "",
          "type": "address"
        }
      ],
      "stateMutability": "view",
      "type": "function"
    },
    {
      "inputs": [],
      "name": "getFundsList",
      "outputs": [
        {
          "internalType": "address[]",
          "name": "",
          "type": "address[]"
        }
      ],
      "stateMutability": "view",
      "type": "function"
    },
    {
      "inputs": [
        {
          "internalType": "uint256",
          "name": "_index",
          "type": "uint256"
        }
      ],
      "name": "getWhiteList",
      "outputs": [
        {
          "internalType": "uint256",
          "name": "",
          "type": "uint256"
        },
        {
          "internalType": "string",
          "name": "",
          "type": "string"
        },
        {
          "internalType": "address",
          "name": "",
          "type": "address"
        },
        {
          "internalType": "string",
          "name": "",
          "type": "string"
        },
        {
          "internalType": "string[]",
          "name": "",
          "type": "string[]"
        },
        {
          "internalType": "string[]",
          "name": "",
          "type": "string[]"
        },
        {
          "internalType": "address[]",
          "name": "",
          "type": "address[]"
        }
      ],
      "stateMutability": "view",
      "type": "function"
    },
    {
      "inputs": [],
      "name": "getWhiteLists",
      "outputs": [
        {
          "internalType": "uint256[]",
          "name": "",
          "type": "uint256[]"
        },
        {
          "internalType": "string[]",
          "name": "",
          "type": "string[]"
        },
        {
          "internalType": "address[]",
          "name": "",
          "type": "address[]"
        },
        {
          "internalType": "uint256[]",
          "name": "",
          "type": "uint256[]"
        },
        {
          "internalType": "string[]",
          "name": "",
          "type": "string[]"
        }
      ],
      "stateMutability": "view",
      "type": "function"
    },
    {
      "inputs": [],
      "name": "getWhitelistCount",
      "outputs": [
        {
          "internalType": "uint256",
          "name": "",
          "type": "uint256"
        }
      ],
      "stateMutability": "view",
      "type": "function"
    },
    {
      "inputs": [],
      "name": "owner",
      "outputs": [
        {
          "internalType": "address",
          "name": "",
          "type": "address"
        }
      ],
      "stateMutability": "view",
      "type": "function"
    },
    {
      "inputs": [
        {
          "internalType": "uint256",
          "name": "_whitelistIndex",
          "type": "uint256"
        },
        {
          "internalType": "address",
          "name": "_addressToken",
          "type": "address"
        }
      ],
      "name": "removeToken",
      "outputs": [
        {
          "internalType": "bool",
          "name": "",
          "type": "bool"
        }
      ],
      "stateMutability": "nonpayable",
      "type": "function"
    },
    {
      "inputs": [
        {
          "internalType": "uint256",
          "name": "",
          "type": "uint256"
        }
      ],
      "name": "whitelistStructs",
      "outputs": [
        {
          "internalType": "uint256",
          "name": "index",
          "type": "uint256"
        },
        {
          "internalType": "string",
          "name": "name",
          "type": "string"
        },
        {
          "internalType": "address",
          "name": "listOwner",
          "type": "address"
        }
      ],
      "stateMutability": "view",
      "type": "function"
    },
    {
      "inputs": [],
      "name": "withdrawFees",
      "outputs": [],
      "stateMutability": "nonpayable",
      "type": "function"
    }
  ],
  "bytecode": "0x6101206040523480156200001257600080fd5b5060405162002de438038062002de483398101604081905262000035916200007a565b6001600160a01b0393841660805291831660a0523360c052821660e0521661010052620000d7565b80516001600160a01b03811681146200007557600080fd5b919050565b600080600080608085870312156200009157600080fd5b6200009c856200005d565b9350620000ac602086016200005d565b9250620000bc604086016200005d565b9150620000cc606086016200005d565b905092959194509250565b60805160a05160c05160e05161010051612c896200015b6000396000611a4a01526000611a2501526000818161021d015281816106660152818161079d01526116b50152600081816101870152818161071001528181611694015281816116f30152611a040152600081816101c20152818161167301526119d80152612c896000f3fe60806040523480156200001157600080fd5b5060043610620001155760003560e01c806377e7114611620000a3578063e2c7d4e4116200006e578063e2c7d4e414620002bb578063ea44ab6314620002d2578063fb8b20af14620002fa578063fcc7e00a146200031357600080fd5b806377e7114614620002045780638da5cb5b146200021b578063aa44a6b51462000242578063d7651453146200026e57600080fd5b8063477e26ef11620000e4578063477e26ef146200016e5780634819130414620001855780636867abc514620001c057806369fb33c214620001e757600080fd5b806311648a4d146200011a57806333fe567614620001315780633edff20f1462000159578063476343ee1462000162575b600080fd5b6000545b6040519081526020015b60405180910390f35b620001486200014236600462002076565b6200032a565b604051901515815260200162000128565b6002546200011e565b6200016c6200065b565b005b6200016c6200017f36600462002150565b620007c7565b7f00000000000000000000000000000000000000000000000000000000000000005b6040516001600160a01b03909116815260200162000128565b7f0000000000000000000000000000000000000000000000000000000000000000620001a7565b620001f162000bb5565b604051620001289594939291906200230c565b6200011e6200021536600462002383565b6200101f565b7f0000000000000000000000000000000000000000000000000000000000000000620001a7565b6200025962000253366004620023bc565b62001146565b604051620001289796959493929190620023d6565b6200027862001667565b604080516001600160a01b03978816815295871660208701529386169385019390935293166060830152608082019290925260a081019190915260c00162000128565b62000148620002cc36600462002076565b6200177c565b620002e9620002e3366004620023bc565b62001803565b604051620001289392919062002464565b62000304620018be565b60405162000128919062002498565b620001a762000324366004620024c3565b62001922565b60008281526001602052604081206005015483906001600160a01b03163314620003c15760405162461bcd60e51b815260206004820152602f60248201527f4f6e6c79207468652077686974656c697374206f776e65722063616e2063616c60448201527f6c20746869732066756e6374696f6e000000000000000000000000000000000060648201526084015b60405180910390fd5b60008481526001602081905260408220018054620003df9062002576565b905011620004425760405162461bcd60e51b815260206004820152602960248201527f74686520696e646578206d757374206265206f662061206578697374696e67206044820152681dda1a5d195b1a5cdd60ba1b6064820152608401620003b8565b60008481526001602081815260408084206001600160a01b038816855260038101835290842054888552929091526002018054919291839081106200048b576200048b620025b3565b600091825260208083206002600490930201820154898452600191829052604090932090910180546001600160a01b03909316935091620004cd9190620025df565b81548110620004e057620004e0620025b3565b9060005260206000209060040201600160008881526020019081526020016000206002018381548110620005185762000518620025b3565b906000526020600020906004020160008201816000019080546200053c9062002576565b6200054992919062001edf565b506001820181600101908054620005609062002576565b6200056d92919062001edf565b5060028281015482820180546001600160a01b0319166001600160a01b039092169190911790556003928301549290910191909155600087815260016020526040902001805480620005c357620005c3620025f9565b60008281526020812060001990920191600483020190620005e5828262001f75565b620005f560018301600062001f75565b506002810180546001600160a01b03191690556000600391820181905591909255968752600160208181526040808a206001600160a01b039586168b529384018252808a2095909555969092168752600401909452909320805460ff1916905550919050565b336001600160a01b037f00000000000000000000000000000000000000000000000000000000000000001614620006fb5760405162461bcd60e51b815260206004820152602e60248201527f4f6e6c792074686520636f6e7472616374206f776e65722063616e2063616c6c60448201527f20746869732066756e6374696f6e0000000000000000000000000000000000006064820152608401620003b8565b6040516370a0823160e01b81523060048201527f0000000000000000000000000000000000000000000000000000000000000000906000906001600160a01b038316906370a0823190602401602060405180830381865afa15801562000765573d6000803e3d6000fd5b505050506040513d601f19601f820116820180604052508101906200078b91906200260f565b9050620007c36001600160a01b0383167f00000000000000000000000000000000000000000000000000000000000000008362001bb2565b5050565b60008481526001602052604090206005015484906001600160a01b031633146200085a5760405162461bcd60e51b815260206004820152602f60248201527f4f6e6c79207468652077686974656c697374206f776e65722063616e2063616c60448201527f6c20746869732066756e6374696f6e00000000000000000000000000000000006064820152608401620003b8565b60008581526001602081905260408220018054620008789062002576565b905011620008db5760405162461bcd60e51b815260206004820152602960248201527f74686520696e646578206d757374206265206f662061206578697374696e67206044820152681dda1a5d195b1a5cdd60ba1b6064820152608401620003b8565b60008451116200092e5760405162461bcd60e51b815260206004820152601b60248201527f546865206c656e677468206e616d65206d757374206265203e203000000000006044820152606401620003b8565b6000835111620009815760405162461bcd60e51b815260206004820152601d60248201527f546865206c656e6774682073796d626f6c206d757374206265203e20300000006044820152606401620003b8565b6001600160a01b038216620009d95760405162461bcd60e51b815260206004820152601e60248201527f54686520746f6b656e2061646472657373206973206d616e6461746f727900006044820152606401620003b8565b60008581526001602090815260408083206001600160a01b038616845260040190915290205460ff161562000a515760405162461bcd60e51b815260206004820152601e60248201527f546f6b656e20616c726561647920696e207468652077686974656c69737400006044820152606401620003b8565b6040805160808101825285815260208082018690526001600160a01b038516828401526000888152600180835293812060020180546060850181905285845294850181558152819020825180519394859460049091029092019262000abc9284929091019062001fb7565b50602082810151805162000ad7926001850192019062001fb7565b50604082810151600283810180546001600160a01b0319166001600160a01b03909316929092179091556060909301516003909201919091556000888152600160208190529190209091015462000b2f9190620025df565b60008781526001602081815260408084206001600160a01b0389168552600381018352818520959095556004909401905290829020805460ff19169091179055517ffa3d32dc75f2330ec9abd141a4c4623dd05bb4429f0c3c415aff808a035892089062000ba590889088908890889062002629565b60405180910390a1505050505050565b6060806060806060600062000bc960025490565b905060008167ffffffffffffffff81111562000be95762000be9620020a5565b60405190808252806020026020018201604052801562000c13578160200160208202803683370190505b50905060008267ffffffffffffffff81111562000c345762000c34620020a5565b60405190808252806020026020018201604052801562000c6957816020015b606081526020019060019003908162000c535790505b50905060008367ffffffffffffffff81111562000c8a5762000c8a620020a5565b60405190808252806020026020018201604052801562000cb4578160200160208202803683370190505b50905060008467ffffffffffffffff81111562000cd55762000cd5620020a5565b60405190808252806020026020018201604052801562000cff578160200160208202803683370190505b50905060008567ffffffffffffffff81111562000d205762000d20620020a5565b60405190808252806020026020018201604052801562000d5557816020015b606081526020019060019003908162000d3f5790505b50905060005b868110156200100c5760006002828154811062000d7c5762000d7c620025b3565b90600052602060002001549050600160008281526020019081526020016000206000015487838151811062000db55762000db5620025b3565b60200260200101818152505060016000828152602001908152602001600020600101805462000de49062002576565b80601f016020809104026020016040519081016040528092919081815260200182805462000e129062002576565b801562000e635780601f1062000e375761010080835404028352916020019162000e63565b820191906000526020600020905b81548152906001019060200180831162000e4557829003601f168201915b505050505086838151811062000e7d5762000e7d620025b3565b60200260200101819052506001600082815260200190815260200160002060050160009054906101000a90046001600160a01b031685838151811062000ec75762000ec7620025b3565b6001600160a01b03909216602092830291909101820152600082815260019091526040902060020154845185908490811062000f075762000f07620025b3565b602002602001018181525050606060005b60008381526001602052604090206002015481101562000fd257801562000f5e578160405160200162000f4c919062002673565b60405160208183030381529060405291505b600083815260016020526040902060020180548391908390811062000f875762000f87620025b3565b906000526020600020906004020160010160405160200162000fab929190620026b6565b6040516020818303038152906040529150808062000fc99062002771565b91505062000f18565b508084848151811062000fe95762000fe9620025b3565b602002602001018190525050508080620010039062002771565b91505062000d5b565b50939a9299509097509550909350915050565b600080825111620010735760405162461bcd60e51b815260206004820152601560248201527f546865206e616d65206973206d616e6461746f727900000000000000000000006044820152606401620003b8565b600254600090620010869060016200278f565b60008181526001602081815260409092208381558651939450620010b09391019186019062001fb7565b50600081815260016020819052604080832060050180546001600160a01b031916331790556002805492830181559092527f405787fa12a823e0f2b7631cc41b3ba8828b3321ca811111fa75cd3aa3bb5ace01829055517f72473a2dbdfef7dcb2df807ab4ead4c3c38ce3b5f8a77481fe5e1ce2c5e9a3bd90620011389083908690620027aa565b60405180910390a192915050565b60008181526001602081905260408220805491018054606092849284928392839283928a92918891620011799062002576565b80601f0160208091040260200160405190810160405280929190818152602001828054620011a79062002576565b8015620011f85780601f10620011cc57610100808354040283529160200191620011f8565b820191906000526020600020905b815481529060010190602001808311620011da57829003601f168201915b50505060008e81526001602052604080822060050154888352908220600201549495506001600160a01b0316936060935090915067ffffffffffffffff811115620012475762001247620020a5565b6040519080825280602002602001820160405280156200127c57816020015b6060815260200190600190039081620012665790505b506000878152600160205260408120600201549192509067ffffffffffffffff811115620012ae57620012ae620020a5565b604051908082528060200260200182016040528015620012e357816020015b6060815260200190600190039081620012cd5790505b506000888152600160205260408120600201549192509067ffffffffffffffff811115620013155762001315620020a5565b6040519080825280602002602001820160405280156200133f578160200160208202803683370190505b50905060005b6000898152600160205260409020600201548110156200164e5780156200138b578460405160200162001379919062002673565b60405160208183030381529060405294505b6000898152600160205260409020600201805486919083908110620013b457620013b4620025b3565b9060005260206000209060040201600101604051602001620013d8929190620026b6565b60408051601f1981840301815291815260008b8152600160205220600201805491965090829081106200140f576200140f620025b3565b906000526020600020906004020160000180546200142d9062002576565b80601f01602080910402602001604051908101604052809291908181526020018280546200145b9062002576565b8015620014ac5780601f106200148057610100808354040283529160200191620014ac565b820191906000526020600020905b8154815290600101906020018083116200148e57829003601f168201915b5050505050848281518110620014c657620014c6620025b3565b6020026020010181905250600160008a81526020019081526020016000206002018181548110620014fb57620014fb620025b3565b90600052602060002090600402016001018054620015199062002576565b80601f0160208091040260200160405190810160405280929190818152602001828054620015479062002576565b8015620015985780601f106200156c5761010080835404028352916020019162001598565b820191906000526020600020905b8154815290600101906020018083116200157a57829003601f168201915b5050505050838281518110620015b257620015b2620025b3565b6020026020010181905250600160008a81526020019081526020016000206002018181548110620015e757620015e7620025b3565b906000526020600020906004020160020160009054906101000a90046001600160a01b0316828281518110620016215762001621620025b3565b6001600160a01b039092166020928302919091019091015280620016458162002771565b91505062001345565b50959f949e50929c50909a509850965090945092505050565b600080600080600080307f00000000000000000000000000000000000000000000000000000000000000007f00000000000000000000000000000000000000000000000000000000000000007f0000000000000000000000000000000000000000000000000000000000000000620016de60005490565b6040516370a0823160e01b81523060048201527f00000000000000000000000000000000000000000000000000000000000000006001600160a01b0316906370a0823190602401602060405180830381865afa15801562001743573d6000803e3d6000fd5b505050506040513d601f19601f820116820180604052508101906200176991906200260f565b949b939a50919850965094509092509050565b60008281526001602081815260408084206001600160a01b03861685526003810183529084205486855292909152600201805483919083908110620017c557620017c5620025b3565b90600052602060002090600402016000018054620017e39062002576565b90501115620017f7576001915050620017fd565b60009150505b92915050565b600160208190526000918252604090912080549181018054620018269062002576565b80601f0160208091040260200160405190810160405280929190818152602001828054620018549062002576565b8015620018a55780601f106200187957610100808354040283529160200191620018a5565b820191906000526020600020905b8154815290600101906020018083116200188757829003601f168201915b505050600590930154919250506001600160a01b031683565b606060008054806020026020016040519081016040528092919081815260200182805480156200191857602002820191906000526020600020905b81546001600160a01b03168152600190910190602001808311620018f9575b5050505050905090565b600080865111620019765760405162461bcd60e51b815260206004820152601560248201527f546865206e616d65206973206d616e6461746f727900000000000000000000006044820152606401620003b8565b6000855111620019c95760405162461bcd60e51b815260206004820152601860248201527f5468652073796d626f6c65206973206d616e6461746f727900000000000000006044820152606401620003b8565b82620019d457600093505b60007f0000000000000000000000000000000000000000000000000000000000000000633f279e6360e01b338b8b7f00000000000000000000000000000000000000000000000000000000000000007f00000000000000000000000000000000000000000000000000000000000000008d8d8d8d7f00000000000000000000000000000000000000000000000000000000000000008e60405160240162001a869b9a99989796959493929190620027c5565b60408051601f198184030181529181526020820180517bffffffffffffffffffffffffffffffffffffffffffffffffffffffff167fffffffff0000000000000000000000000000000000000000000000000000000090941693909317909252905162001af29062002034565b62001aff9291906200284f565b604051809103906000f08015801562001b1c573d6000803e3d6000fd5b5090507f39f9678da41ac99953493575215f3f3b055f9aa26aa4c4bad9079a8449f48f713382898960405162001b56949392919062002873565b60405180910390a1600080546001810182559080527f290decd9548b62a8d60345a988386fc84ba6bc95484008f6362f93160ef3e5630180546001600160a01b0319166001600160a01b03831617905598975050505050505050565b604080516001600160a01b038416602482015260448082018490528251808303909101815260649091019091526020810180517bffffffffffffffffffffffffffffffffffffffffffffffffffffffff167fa9059cbb0000000000000000000000000000000000000000000000000000000017905262001c3490849062001c39565b505050565b600062001c90826040518060400160405280602081526020017f5361666545524332303a206c6f772d6c6576656c2063616c6c206661696c6564815250856001600160a01b031662001d289092919063ffffffff16565b905080516000148062001cb457508080602001905181019062001cb49190620028b5565b62001c345760405162461bcd60e51b815260206004820152602a60248201527f5361666545524332303a204552433230206f7065726174696f6e20646964206e60448201527f6f742073756363656564000000000000000000000000000000000000000000006064820152608401620003b8565b606062001d39848460008562001d41565b949350505050565b60608247101562001dbb5760405162461bcd60e51b815260206004820152602660248201527f416464726573733a20696e73756666696369656e742062616c616e636520666f60448201527f722063616c6c00000000000000000000000000000000000000000000000000006064820152608401620003b8565b600080866001600160a01b0316858760405162001dd99190620028d5565b60006040518083038185875af1925050503d806000811462001e18576040519150601f19603f3d011682016040523d82523d6000602084013e62001e1d565b606091505b509150915062001e308783838762001e3b565b979650505050505050565b6060831562001eac57825162001ea4576001600160a01b0385163b62001ea45760405162461bcd60e51b815260206004820152601d60248201527f416464726573733a2063616c6c20746f206e6f6e2d636f6e74726163740000006044820152606401620003b8565b508162001d39565b62001d39838381511562001ec35781518083602001fd5b8060405162461bcd60e51b8152600401620003b89190620028f3565b82805462001eed9062002576565b90600052602060002090601f01602090048101928262001f11576000855562001f63565b82601f1062001f24578054855562001f63565b8280016001018555821562001f6357600052602060002091601f016020900482015b8281111562001f6357825482559160010191906001019062001f46565b5062001f7192915062002042565b5090565b50805462001f839062002576565b6000825580601f1062001f94575050565b601f01602090049060005260206000209081019062001fb4919062002042565b50565b82805462001fc59062002576565b90600052602060002090601f01602090048101928262001fe9576000855562001f63565b82601f106200200457805160ff191683800117855562001f63565b8280016001018555821562001f63579182015b8281111562001f6357825182559160200191906001019062002017565b61034b806200290983390190565b5b8082111562001f71576000815560010162002043565b80356001600160a01b03811681146200207157600080fd5b919050565b600080604083850312156200208a57600080fd5b823591506200209c6020840162002059565b90509250929050565b634e487b7160e01b600052604160045260246000fd5b600082601f830112620020cd57600080fd5b813567ffffffffffffffff80821115620020eb57620020eb620020a5565b604051601f8301601f19908116603f01168101908282118183101715620021165762002116620020a5565b816040528381528660208588010111156200213057600080fd5b836020870160208301376000602085830101528094505050505092915050565b600080600080608085870312156200216757600080fd5b84359350602085013567ffffffffffffffff808211156200218757600080fd5b6200219588838901620020bb565b94506040870135915080821115620021ac57600080fd5b50620021bb87828801620020bb565b925050620021cc6060860162002059565b905092959194509250565b600081518084526020808501945080840160005b838110156200220957815187529582019590820190600101620021eb565b509495945050505050565b60005b838110156200223157818101518382015260200162002217565b8381111562002241576000848401525b50505050565b600081518084526200226181602086016020860162002214565b601f01601f19169290920160200192915050565b600082825180855260208086019550808260051b84010181860160005b84811015620022c457601f19868403018952620022b183835162002247565b9884019892509083019060010162002292565b5090979650505050505050565b600081518084526020808501945080840160005b83811015620022095781516001600160a01b031687529582019590820190600101620022e5565b60a0815260006200232160a0830188620021d7565b828103602084015262002335818862002275565b905082810360408401526200234b8187620022d1565b90508281036060840152620023618186620021d7565b9050828103608084015262002377818562002275565b98975050505050505050565b6000602082840312156200239657600080fd5b813567ffffffffffffffff811115620023ae57600080fd5b62001d3984828501620020bb565b600060208284031215620023cf57600080fd5b5035919050565b87815260e060208201526000620023f160e083018962002247565b6001600160a01b0388166040840152828103606084015262002414818862002247565b905082810360808401526200242a818762002275565b905082810360a084015262002440818662002275565b905082810360c0840152620024568185620022d1565b9a9950505050505050505050565b8381526060602082015260006200247f606083018562002247565b90506001600160a01b0383166040830152949350505050565b602081526000620024ad6020830184620022d1565b9392505050565b801515811462001fb457600080fd5b600080600080600080600060e0888a031215620024df57600080fd5b8735965060208801359550604088013567ffffffffffffffff808211156200250657600080fd5b620025148b838c01620020bb565b965060608a01359150808211156200252b57600080fd5b506200253a8a828b01620020bb565b9450506080880135925060a08801356200255481620024b4565b915060c08801356200256681620024b4565b8091505092959891949750929550565b600181811c908216806200258b57607f821691505b60208210811415620025ad57634e487b7160e01b600052602260045260246000fd5b50919050565b634e487b7160e01b600052603260045260246000fd5b634e487b7160e01b600052601160045260246000fd5b600082821015620025f457620025f4620025c9565b500390565b634e487b7160e01b600052603160045260246000fd5b6000602082840312156200262257600080fd5b5051919050565b84815260806020820152600062002644608083018662002247565b828103604084015262002658818662002247565b9150506001600160a01b038316606083015295945050505050565b600082516200268781846020870162002214565b7f2c00000000000000000000000000000000000000000000000000000000000000920191825250600101919050565b600083516020620026cb828583890162002214565b845491840191600090600181811c9080831680620026ea57607f831692505b8583108114156200270957634e487b7160e01b85526022600452602485fd5b808015620027205760018114620027325762002761565b60ff1985168852838801955062002761565b60008b81526020902060005b85811015620027595781548a8201529084019088016200273e565b505083880195505b50939a9950505050505050505050565b6000600019821415620027885762002788620025c9565b5060010190565b60008219821115620027a557620027a5620025c9565b500190565b82815260406020820152600062001d39604083018462002247565b60006101606001600160a01b03808f1684528d60208501528c6040850152808c166060850152808b1660808501528160a0850152620028078285018b62002247565b915083820360c08501526200281d828a62002247565b60e085019890985295151561010084015250509190921661012082015290151561014090910152979650505050505050565b6001600160a01b038316815260406020820152600062001d39604083018462002247565b60006001600160a01b03808716835280861660208401525060806040830152620028a1608083018562002247565b828103606084015262001e30818562002247565b600060208284031215620028c857600080fd5b8151620024ad81620024b4565b60008251620028e981846020870162002214565b9190910192915050565b602081526000620024ad60208301846200224756fe608060405234801561001057600080fd5b5060405161034b38038061034b83398101604081905261002f9161011b565b600080546001600160a01b0319166001600160a01b038416908117825560405182919061005d9085906101e9565b600060405180830381855af49150503d8060008114610098576040519150601f19603f3d011682016040523d82523d6000602084013e61009d565b606091505b50915091508181906100cb5760405162461bcd60e51b81526004016100c29190610205565b60405180910390fd5b5050505050610238565b634e487b7160e01b600052604160045260246000fd5b60005b838110156101065781810151838201526020016100ee565b83811115610115576000848401525b50505050565b6000806040838503121561012e57600080fd5b82516001600160a01b038116811461014557600080fd5b60208401519092506001600160401b038082111561016257600080fd5b818501915085601f83011261017657600080fd5b815181811115610188576101886100d5565b604051601f8201601f19908116603f011681019083821181831017156101b0576101b06100d5565b816040528281528860208487010111156101c957600080fd5b6101da8360208301602088016100eb565b80955050505050509250929050565b600082516101fb8184602087016100eb565b9190910192915050565b60208152600082518060208401526102248160408501602087016100eb565b601f01601f19169190910160400192915050565b610104806102476000396000f3fe608060405260043610601f5760003560e01c8063abdd707414603157602b565b36602b5760296085565b005b60296085565b348015603c57600080fd5b50600054605c9073ffffffffffffffffffffffffffffffffffffffff1681565b60405173ffffffffffffffffffffffffffffffffffffffff909116815260200160405180910390f35b60a960a560005473ffffffffffffffffffffffffffffffffffffffff1690565b60ab565b565b3660008037600080366000845af43d6000803e80801560c9573d6000f35b3d6000fdfea264697066735822122038490d9096b9fe6448db30642cdb01a94f5db6a432d079f6288012bda80d869b64736f6c634300080c0033a26469706673582212208aca1026c9a422431be9cfa2905986718df2b18a2231a02894ecfc080066cd4e64736f6c634300080c0033",
  "linkReferences": {},
  "deployedLinkReferences": {}
}