{
  "_format": "hh-sol-artifact-1",
  "contractName": "FundLogic",
  "sourceName": "contracts/flatten/FundLogicFlattened.sol",
  "abi": [
    {
      "inputs": [],
      "stateMutability": "nonpayable",
      "type": "constructor"
    },
    {
      "anonymous": false,
      "inputs": [
        {
          "indexed": true,
          "internalType": "address",
          "name": "owner",
          "type": "address"
        },
        {
          "indexed": true,
          "internalType": "address",
          "name": "spender",
          "type": "address"
        },
        {
          "indexed": false,
          "internalType": "uint256",
          "name": "value",
          "type": "uint256"
        }
      ],
      "name": "Approval",
      "type": "event"
    },
    {
      "anonymous": false,
      "inputs": [
        {
          "indexed": false,
          "internalType": "uint256",
          "name": "managmentFeeForProtocol",
          "type": "uint256"
        },
        {
          "indexed": false,
          "internalType": "uint256",
          "name": "managmentFeeForFundOwner",
          "type": "uint256"
        },
        {
          "indexed": false,
          "internalType": "uint256",
          "name": "secondsPaid",
          "type": "uint256"
        }
      ],
      "name": "FeesPaidForManagment",
      "type": "event"
    },
    {
      "anonymous": false,
      "inputs": [
        {
          "indexed": false,
          "internalType": "uint256",
          "name": "mintingFeeForProtocol",
          "type": "uint256"
        },
        {
          "indexed": false,
          "internalType": "uint256",
          "name": "mintingFeeForOwner",
          "type": "uint256"
        },
        {
          "indexed": false,
          "internalType": "uint256",
          "name": "secondsPaid",
          "type": "uint256"
        }
      ],
      "name": "FeesPaidForMinting",
      "type": "event"
    },
    {
      "anonymous": false,
      "inputs": [
        {
          "indexed": false,
          "internalType": "uint8",
          "name": "version",
          "type": "uint8"
        }
      ],
      "name": "Initialized",
      "type": "event"
    },
    {
      "anonymous": false,
      "inputs": [
        {
          "indexed": true,
          "internalType": "address",
          "name": "owner",
          "type": "address"
        },
        {
          "indexed": false,
          "internalType": "uint256",
          "name": "amount",
          "type": "uint256"
        }
      ],
      "name": "InvestmentRedeemed",
      "type": "event"
    },
    {
      "anonymous": false,
      "inputs": [
        {
          "indexed": true,
          "internalType": "bytes32",
          "name": "role",
          "type": "bytes32"
        },
        {
          "indexed": true,
          "internalType": "bytes32",
          "name": "previousAdminRole",
          "type": "bytes32"
        },
        {
          "indexed": true,
          "internalType": "bytes32",
          "name": "newAdminRole",
          "type": "bytes32"
        }
      ],
      "name": "RoleAdminChanged",
      "type": "event"
    },
    {
      "anonymous": false,
      "inputs": [
        {
          "indexed": true,
          "internalType": "bytes32",
          "name": "role",
          "type": "bytes32"
        },
        {
          "indexed": true,
          "internalType": "address",
          "name": "account",
          "type": "address"
        },
        {
          "indexed": true,
          "internalType": "address",
          "name": "sender",
          "type": "address"
        }
      ],
      "name": "RoleGranted",
      "type": "event"
    },
    {
      "anonymous": false,
      "inputs": [
        {
          "indexed": true,
          "internalType": "bytes32",
          "name": "role",
          "type": "bytes32"
        },
        {
          "indexed": true,
          "internalType": "address",
          "name": "account",
          "type": "address"
        },
        {
          "indexed": true,
          "internalType": "address",
          "name": "sender",
          "type": "address"
        }
      ],
      "name": "RoleRevoked",
      "type": "event"
    },
    {
      "anonymous": false,
      "inputs": [
        {
          "indexed": false,
          "internalType": "uint256",
          "name": "sharesAmount",
          "type": "uint256"
        },
        {
          "indexed": false,
          "internalType": "uint256",
          "name": "investmentAmount",
          "type": "uint256"
        },
        {
          "indexed": true,
          "internalType": "address",
          "name": "owner",
          "type": "address"
        }
      ],
      "name": "SharesMinted",
      "type": "event"
    },
    {
      "anonymous": false,
      "inputs": [
        {
          "indexed": true,
          "internalType": "address",
          "name": "from",
          "type": "address"
        },
        {
          "indexed": true,
          "internalType": "address",
          "name": "to",
          "type": "address"
        },
        {
          "indexed": false,
          "internalType": "uint256",
          "name": "value",
          "type": "uint256"
        }
      ],
      "name": "Transfer",
      "type": "event"
    },
    {
      "inputs": [],
      "name": "ADMIN_MANAGER",
      "outputs": [
        {
          "internalType": "bytes32",
          "name": "",
          "type": "bytes32"
        }
      ],
      "stateMutability": "view",
      "type": "function"
    },
    {
      "inputs": [],
      "name": "DEFAULT_ADMIN_ROLE",
      "outputs": [
        {
          "internalType": "bytes32",
          "name": "",
          "type": "bytes32"
        }
      ],
      "stateMutability": "view",
      "type": "function"
    },
    {
      "inputs": [],
      "name": "FUND_FACTORY",
      "outputs": [
        {
          "internalType": "address",
          "name": "",
          "type": "address"
        }
      ],
      "stateMutability": "view",
      "type": "function"
    },
    {
      "inputs": [],
      "name": "MANAGER",
      "outputs": [
        {
          "internalType": "bytes32",
          "name": "",
          "type": "bytes32"
        }
      ],
      "stateMutability": "view",
      "type": "function"
    },
    {
      "inputs": [],
      "name": "USDC_TOKEN",
      "outputs": [
        {
          "internalType": "address",
          "name": "",
          "type": "address"
        }
      ],
      "stateMutability": "view",
      "type": "function"
    },
    {
      "inputs": [
        {
          "internalType": "address",
          "name": "_manager",
          "type": "address"
        }
      ],
      "name": "addNewManager",
      "outputs": [
        {
          "internalType": "bool",
          "name": "",
          "type": "bool"
        }
      ],
      "stateMutability": "nonpayable",
      "type": "function"
    },
    {
      "inputs": [
        {
          "internalType": "address",
          "name": "owner",
          "type": "address"
        },
        {
          "internalType": "address",
          "name": "spender",
          "type": "address"
        }
      ],
      "name": "allowance",
      "outputs": [
        {
          "internalType": "uint256",
          "name": "",
          "type": "uint256"
        }
      ],
      "stateMutability": "view",
      "type": "function"
    },
    {
      "inputs": [
        {
          "internalType": "address",
          "name": "spender",
          "type": "address"
        },
        {
          "internalType": "uint256",
          "name": "amount",
          "type": "uint256"
        }
      ],
      "name": "approve",
      "outputs": [
        {
          "internalType": "bool",
          "name": "",
          "type": "bool"
        }
      ],
      "stateMutability": "nonpayable",
      "type": "function"
    },
    {
      "inputs": [
        {
          "internalType": "address",
          "name": "account",
          "type": "address"
        }
      ],
      "name": "balanceOf",
      "outputs": [
        {
          "internalType": "uint256",
          "name": "",
          "type": "uint256"
        }
      ],
      "stateMutability": "view",
      "type": "function"
    },
    {
      "inputs": [],
      "name": "decimals",
      "outputs": [
        {
          "internalType": "uint8",
          "name": "",
          "type": "uint8"
        }
      ],
      "stateMutability": "view",
      "type": "function"
    },
    {
      "inputs": [
        {
          "internalType": "address",
          "name": "spender",
          "type": "address"
        },
        {
          "internalType": "uint256",
          "name": "subtractedValue",
          "type": "uint256"
        }
      ],
      "name": "decreaseAllowance",
      "outputs": [
        {
          "internalType": "bool",
          "name": "",
          "type": "bool"
        }
      ],
      "stateMutability": "nonpayable",
      "type": "function"
    },
    {
      "inputs": [
        {
          "internalType": "contract IERC20",
          "name": "_sellToken",
          "type": "address"
        },
        {
          "internalType": "contract IERC20",
          "name": "_buyToken",
          "type": "address"
        },
        {
          "internalType": "address",
          "name": "_spender",
          "type": "address"
        },
        {
          "internalType": "address payable",
          "name": "_swapTarget",
          "type": "address"
        },
        {
          "internalType": "bytes",
          "name": "_swapCallData",
          "type": "bytes"
        }
      ],
      "name": "fillQuote",
      "outputs": [
        {
          "internalType": "bool",
          "name": "",
          "type": "bool"
        }
      ],
      "stateMutability": "payable",
      "type": "function"
    },
    {
      "inputs": [],
      "name": "getAssetBalance",
      "outputs": [
        {
          "internalType": "uint256",
          "name": "balance_",
          "type": "uint256"
        }
      ],
      "stateMutability": "view",
      "type": "function"
    },
    {
      "inputs": [],
      "name": "getFeeBpsFund",
      "outputs": [
        {
          "internalType": "uint256",
          "name": "feeBps_",
          "type": "uint256"
        }
      ],
      "stateMutability": "view",
      "type": "function"
    },
    {
      "inputs": [],
      "name": "getFeeBpsProtocol",
      "outputs": [
        {
          "internalType": "uint256",
          "name": "feeBps_",
          "type": "uint256"
        }
      ],
      "stateMutability": "pure",
      "type": "function"
    },
    {
      "inputs": [],
      "name": "getFeeDepositForFund",
      "outputs": [
        {
          "internalType": "uint256",
          "name": "feeDeposit_",
          "type": "uint256"
        }
      ],
      "stateMutability": "view",
      "type": "function"
    },
    {
      "inputs": [],
      "name": "getFeeDepositForProtocol",
      "outputs": [
        {
          "internalType": "uint256",
          "name": "feeDeposit_",
          "type": "uint256"
        }
      ],
      "stateMutability": "pure",
      "type": "function"
    },
    {
      "inputs": [],
      "name": "getFundInformations",
      "outputs": [
        {
          "internalType": "string",
          "name": "",
          "type": "string"
        },
        {
          "internalType": "string",
          "name": "",
          "type": "string"
        },
        {
          "internalType": "uint256",
          "name": "",
          "type": "uint256"
        },
        {
          "internalType": "address",
          "name": "",
          "type": "address"
        },
        {
          "internalType": "uint256",
          "name": "",
          "type": "uint256"
        },
        {
          "internalType": "uint256",
          "name": "",
          "type": "uint256"
        },
        {
          "internalType": "uint256",
          "name": "",
          "type": "uint256"
        },
        {
          "internalType": "uint256",
          "name": "",
          "type": "uint256"
        },
        {
          "internalType": "uint256",
          "name": "",
          "type": "uint256"
        },
        {
          "internalType": "address[]",
          "name": "",
          "type": "address[]"
        },
        {
          "internalType": "bool",
          "name": "",
          "type": "bool"
        },
        {
          "internalType": "uint256",
          "name": "",
          "type": "uint256"
        }
      ],
      "stateMutability": "view",
      "type": "function"
    },
    {
      "inputs": [],
      "name": "getFundLastPaid",
      "outputs": [
        {
          "internalType": "uint256",
          "name": "",
          "type": "uint256"
        }
      ],
      "stateMutability": "view",
      "type": "function"
    },
    {
      "inputs": [
        {
          "internalType": "bytes32",
          "name": "role",
          "type": "bytes32"
        }
      ],
      "name": "getRoleAdmin",
      "outputs": [
        {
          "internalType": "bytes32",
          "name": "",
          "type": "bytes32"
        }
      ],
      "stateMutability": "view",
      "type": "function"
    },
    {
      "inputs": [
        {
          "internalType": "bytes32",
          "name": "role",
          "type": "bytes32"
        },
        {
          "internalType": "uint256",
          "name": "index",
          "type": "uint256"
        }
      ],
      "name": "getRoleMember",
      "outputs": [
        {
          "internalType": "address",
          "name": "",
          "type": "address"
        }
      ],
      "stateMutability": "view",
      "type": "function"
    },
    {
      "inputs": [
        {
          "internalType": "bytes32",
          "name": "role",
          "type": "bytes32"
        }
      ],
      "name": "getRoleMemberCount",
      "outputs": [
        {
          "internalType": "uint256",
          "name": "",
          "type": "uint256"
        }
      ],
      "stateMutability": "view",
      "type": "function"
    },
    {
      "inputs": [],
      "name": "getTrackedAssets",
      "outputs": [
        {
          "internalType": "address[]",
          "name": "",
          "type": "address[]"
        }
      ],
      "stateMutability": "view",
      "type": "function"
    },
    {
      "inputs": [],
      "name": "getWhitelistId",
      "outputs": [
        {
          "internalType": "uint256",
          "name": "",
          "type": "uint256"
        }
      ],
      "stateMutability": "view",
      "type": "function"
    },
    {
      "inputs": [],
      "name": "getZeroExExchange",
      "outputs": [
        {
          "internalType": "address",
          "name": "zeroExExchange_",
          "type": "address"
        }
      ],
      "stateMutability": "view",
      "type": "function"
    },
    {
      "inputs": [
        {
          "internalType": "bytes32",
          "name": "role",
          "type": "bytes32"
        },
        {
          "internalType": "address",
          "name": "account",
          "type": "address"
        }
      ],
      "name": "grantRole",
      "outputs": [],
      "stateMutability": "nonpayable",
      "type": "function"
    },
    {
      "inputs": [
        {
          "internalType": "bytes32",
          "name": "role",
          "type": "bytes32"
        },
        {
          "internalType": "address",
          "name": "account",
          "type": "address"
        }
      ],
      "name": "hasRole",
      "outputs": [
        {
          "internalType": "bool",
          "name": "",
          "type": "bool"
        }
      ],
      "stateMutability": "view",
      "type": "function"
    },
    {
      "inputs": [
        {
          "internalType": "address",
          "name": "spender",
          "type": "address"
        },
        {
          "internalType": "uint256",
          "name": "addedValue",
          "type": "uint256"
        }
      ],
      "name": "increaseAllowance",
      "outputs": [
        {
          "internalType": "bool",
          "name": "",
          "type": "bool"
        }
      ],
      "stateMutability": "nonpayable",
      "type": "function"
    },
    {
      "inputs": [
        {
          "internalType": "string",
          "name": "_name",
          "type": "string"
        },
        {
          "internalType": "string",
          "name": "_symbol",
          "type": "string"
        }
      ],
      "name": "initialize",
      "outputs": [],
      "stateMutability": "nonpayable",
      "type": "function"
    },
    {
      "inputs": [
        {
          "internalType": "address",
          "name": "_owner",
          "type": "address"
        },
        {
          "internalType": "uint256",
          "name": "_fundPaymentFees",
          "type": "uint256"
        },
        {
          "internalType": "uint256",
          "name": "_fundManagmentFees",
          "type": "uint256"
        },
        {
          "internalType": "address",
          "name": "_usdcToken",
          "type": "address"
        },
        {
          "internalType": "address",
          "name": "_zeroExchange",
          "type": "address"
        },
        {
          "internalType": "string",
          "name": "_name",
          "type": "string"
        },
        {
          "internalType": "string",
          "name": "_symbol",
          "type": "string"
        },
        {
          "internalType": "uint256",
          "name": "_whitelistId",
          "type": "uint256"
        },
        {
          "internalType": "bool",
          "name": "_useWhitelist",
          "type": "bool"
        }
      ],
      "name": "initialize",
      "outputs": [],
      "stateMutability": "nonpayable",
      "type": "function"
    },
    {
      "inputs": [
        {
          "internalType": "uint256",
          "name": "_investmentAmount",
          "type": "uint256"
        }
      ],
      "name": "investInFund",
      "outputs": [
        {
          "internalType": "uint256",
          "name": "",
          "type": "uint256"
        }
      ],
      "stateMutability": "nonpayable",
      "type": "function"
    },
    {
      "inputs": [
        {
          "internalType": "address",
          "name": "_asset",
          "type": "address"
        }
      ],
      "name": "isTrackedAsset",
      "outputs": [
        {
          "internalType": "bool",
          "name": "isTrackedAsset_",
          "type": "bool"
        }
      ],
      "stateMutability": "view",
      "type": "function"
    },
    {
      "inputs": [],
      "name": "name",
      "outputs": [
        {
          "internalType": "string",
          "name": "",
          "type": "string"
        }
      ],
      "stateMutability": "view",
      "type": "function"
    },
    {
      "inputs": [],
      "name": "owner",
      "outputs": [
        {
          "internalType": "address",
          "name": "",
          "type": "address"
        }
      ],
      "stateMutability": "view",
      "type": "function"
    },
    {
      "inputs": [
        {
          "internalType": "uint256",
          "name": "_shares",
          "type": "uint256"
        }
      ],
      "name": "redeemInvestment",
      "outputs": [
        {
          "internalType": "bool",
          "name": "",
          "type": "bool"
        }
      ],
      "stateMutability": "nonpayable",
      "type": "function"
    },
    {
      "inputs": [
        {
          "internalType": "bytes32",
          "name": "role",
          "type": "bytes32"
        },
        {
          "internalType": "address",
          "name": "account",
          "type": "address"
        }
      ],
      "name": "renounceRole",
      "outputs": [],
      "stateMutability": "nonpayable",
      "type": "function"
    },
    {
      "inputs": [
        {
          "internalType": "address",
          "name": "_manager",
          "type": "address"
        }
      ],
      "name": "revokeManager",
      "outputs": [
        {
          "internalType": "bool",
          "name": "",
          "type": "bool"
        }
      ],
      "stateMutability": "nonpayable",
      "type": "function"
    },
    {
      "inputs": [
        {
          "internalType": "bytes32",
          "name": "role",
          "type": "bytes32"
        },
        {
          "internalType": "address",
          "name": "account",
          "type": "address"
        }
      ],
      "name": "revokeRole",
      "outputs": [],
      "stateMutability": "nonpayable",
      "type": "function"
    },
    {
      "inputs": [
        {
          "internalType": "bytes4",
          "name": "interfaceId",
          "type": "bytes4"
        }
      ],
      "name": "supportsInterface",
      "outputs": [
        {
          "internalType": "bool",
          "name": "",
          "type": "bool"
        }
      ],
      "stateMutability": "view",
      "type": "function"
    },
    {
      "inputs": [],
      "name": "symbol",
      "outputs": [
        {
          "internalType": "string",
          "name": "",
          "type": "string"
        }
      ],
      "stateMutability": "view",
      "type": "function"
    },
    {
      "inputs": [],
      "name": "totalSupply",
      "outputs": [
        {
          "internalType": "uint256",
          "name": "",
          "type": "uint256"
        }
      ],
      "stateMutability": "view",
      "type": "function"
    },
    {
      "inputs": [
        {
          "internalType": "address",
          "name": "to",
          "type": "address"
        },
        {
          "internalType": "uint256",
          "name": "amount",
          "type": "uint256"
        }
      ],
      "name": "transfer",
      "outputs": [
        {
          "internalType": "bool",
          "name": "",
          "type": "bool"
        }
      ],
      "stateMutability": "nonpayable",
      "type": "function"
    },
    {
      "inputs": [
        {
          "internalType": "address",
          "name": "from",
          "type": "address"
        },
        {
          "internalType": "address",
          "name": "to",
          "type": "address"
        },
        {
          "internalType": "uint256",
          "name": "amount",
          "type": "uint256"
        }
      ],
      "name": "transferFrom",
      "outputs": [
        {
          "internalType": "bool",
          "name": "",
          "type": "bool"
        }
      ],
      "stateMutability": "nonpayable",
      "type": "function"
    },
    {
      "stateMutability": "payable",
      "type": "receive"
    }
  ],
  "bytecode": "0x608060405234801561001057600080fd5b50613d95806100206000396000f3fe6080604052600436106102e05760003560e01c80635bab42a111610184578063a457c2d7116100d6578063ca15c8731161008a578063dd62ed3e11610064578063dd62ed3e14610842578063f56ae74e14610888578063fa569274146108a857600080fd5b8063ca15c873146107ee578063d50df8701461080e578063d547741f1461082257600080fd5b8063ab971612116100bb578063ab9716121461079b578063c4b97370146107ae578063c4d48806146107d057600080fd5b8063a457c2d71461075b578063a9059cbb1461077b57600080fd5b80639010d07c1161013857806395d89b411161011257806395d89b41146106fd5780639a5b6f8f14610712578063a217fddf1461074657600080fd5b80639010d07c1461067757806391d148541461069757806392ab0c44146106dd57600080fd5b8063797ed33911610169578063797ed339146106095780637f986930146106435780638da5cb5b1461065957600080fd5b80635bab42a1146105b357806370a08231146105d357600080fd5b8063324203b81161023d5780633bc7dba0116101f15780634cd88b76116101cb5780634cd88b761461055e5780634e4da6711461057e5780634efc13d41461059357600080fd5b80633bc7dba0146104e557806341fed8191461051d57806349a348411461054a57600080fd5b806336568abe1161022257806336568abe14610485578063377e32e6146104a557806339509351146104c557600080fd5b8063324203b81461045957806334ebe9621461046f57600080fd5b80631b2df85011610294578063248a9ca311610279578063248a9ca3146103eb5780632f2ff15d1461041b578063313ce5671461043d57600080fd5b80631b2df8501461039757806323b872dd146103cb57600080fd5b8063095ea7b3116102c5578063095ea7b31461034357806318160ddd14610363578063183b31591461038257600080fd5b806301ffc9a7146102ec57806306fdde031461032157600080fd5b366102e757005b600080fd5b3480156102f857600080fd5b5061030c61030736600461350a565b6108c8565b60405190151581526020015b60405180910390f35b34801561032d57600080fd5b5061033661090c565b604051610318919061358c565b34801561034f57600080fd5b5061030c61035e3660046135bf565b61099e565b34801561036f57600080fd5b506035545b604051908152602001610318565b34801561038e57600080fd5b506103746109b6565b3480156103a357600080fd5b506103747faf290d8680820aad922855f39b306097b20e28774d6c1ad35a20325630c3a02c81565b3480156103d757600080fd5b5061030c6103e63660046135eb565b610a28565b3480156103f757600080fd5b5061037461040636600461362c565b60009081526097602052604090206001015490565b34801561042757600080fd5b5061043b610436366004613645565b610a4e565b005b34801561044957600080fd5b5060405160128152602001610318565b34801561046557600080fd5b5061010154610374565b34801561047b57600080fd5b5061010054610374565b34801561049157600080fd5b5061043b6104a0366004613645565b610a78565b3480156104b157600080fd5b5061030c6104c0366004613675565b610b09565b3480156104d157600080fd5b5061030c6104e03660046135bf565b610b3d565b3480156104f157600080fd5b5060fb54610505906001600160a01b031681565b6040516001600160a01b039091168152602001610318565b34801561052957600080fd5b50610532610b7c565b6040516103189c9b9a999897969594939291906136d6565b34801561055657600080fd5b50603c610374565b34801561056a57600080fd5b5061043b610579366004613807565b610c03565b34801561058a57600080fd5b5060ff54610374565b34801561059f57600080fd5b5061030c6105ae366004613675565b610c7b565b3480156105bf57600080fd5b506103746105ce36600461362c565b610ca7565b3480156105df57600080fd5b506103746105ee366004613675565b6001600160a01b031660009081526033602052604090205490565b34801561061557600080fd5b5061030c610624366004613675565b6001600160a01b03166000908152610106602052604090205460ff1690565b34801561064f57600080fd5b5061010254610374565b34801561066557600080fd5b5060fc546001600160a01b0316610505565b34801561068357600080fd5b5061050561069236600461386b565b610e31565b3480156106a357600080fd5b5061030c6106b2366004613645565b60009182526097602090815260408084206001600160a01b0393909316845291905290205460ff1690565b3480156106e957600080fd5b5061030c6106f836600461362c565b610e49565b34801561070957600080fd5b50610336611022565b34801561071e57600080fd5b506103747f62a3325481bde8c49e5877e63d795c31a52537126874bbe11932b19108cb266481565b34801561075257600080fd5b50610374600081565b34801561076757600080fd5b5061030c6107763660046135bf565b611031565b34801561078757600080fd5b5061030c6107963660046135bf565b6110e6565b61030c6107a936600461388d565b6110f4565b3480156107ba57600080fd5b506107c3611419565b6040516103189190613949565b3480156107dc57600080fd5b5060fe546001600160a01b0316610505565b3480156107fa57600080fd5b5061037461080936600461362c565b61147b565b34801561081a57600080fd5b506032610374565b34801561082e57600080fd5b5061043b61083d366004613645565b611492565b34801561084e57600080fd5b5061037461085d36600461395c565b6001600160a01b03918216600090815260346020908152604080832093909416825291909152205490565b34801561089457600080fd5b5061043b6108a33660046139a3565b6114b7565b3480156108b457600080fd5b5060fd54610505906001600160a01b031681565b60006001600160e01b031982167f5a05180f000000000000000000000000000000000000000000000000000000001480610906575061090682611668565b92915050565b60606036805461091b90613a6b565b80601f016020809104026020016040519081016040528092919081815260200182805461094790613a6b565b80156109945780601f1061096957610100808354040283529160200191610994565b820191906000526020600020905b81548152906001019060200180831161097757829003601f168201915b5050505050905090565b6000336109ac8185856116cf565b5060019392505050565b60fd546040516370a0823160e01b81523060048201526000916001600160a01b0316906370a0823190602401602060405180830381865afa1580156109ff573d6000803e3d6000fd5b505050506040513d601f19601f82011682018060405250810190610a239190613aa0565b905090565b600033610a36858285611827565b610a418585856118b9565b60019150505b9392505050565b600082815260976020526040902060010154610a6981611ad0565b610a738383611add565b505050565b6001600160a01b0381163314610afb5760405162461bcd60e51b815260206004820152602f60248201527f416363657373436f6e74726f6c3a2063616e206f6e6c792072656e6f756e636560448201527f20726f6c657320666f722073656c66000000000000000000000000000000000060648201526084015b60405180910390fd5b610b058282611aff565b5050565b6000610b357faf290d8680820aad922855f39b306097b20e28774d6c1ad35a20325630c3a02c83611492565b506001919050565b3360008181526034602090815260408083206001600160a01b03871684529091528120549091906109ac9082908690610b77908790613acf565b6116cf565b60608060008060008060008060006060600080610b9761090c565b610b9f611022565b60355460fc5460ff54610100546001600160a01b0390921691603c6032610bc46109b6565b610bcc611419565b6101035460ff16610bdd6101025490565b9b509b509b509b509b509b509b509b509b509b509b509b50909192939495969798999a9b565b6000610c0f6001611b21565b90508015610c27576000805461ff0019166101001790555b610c318383611c5a565b8015610a73576000805461ff0019169055604051600181527f7f26b83ff96e1f2b6a682f133852f6798a09c465da95921460cefb38474024989060200160405180910390a1505050565b6000610b357faf290d8680820aad922855f39b306097b20e28774d6c1ad35a20325630c3a02c83610a4e565b6000808211610cf85760405162461bcd60e51b815260206004820152601a60248201527f696e76657374656d656e74206e65656420746f206265203e20300000000000006044820152606401610af2565b6000610d0383611ccf565b905080610d525760405162461bcd60e51b815260206004820152601060248201527f6572726f7220706179696e6720666565000000000000000000000000000000006044820152606401610af2565b60fd546001600160a01b03166000610d69856121df565b6040516323b872dd60e01b8152336004820152306024820152604481018790529091506001600160a01b038316906323b872dd906064016020604051808303816000875af1158015610dbf573d6000803e3d6000fd5b505050506040513d601f19601f82011682018060405250810190610de39190613ae7565b50610dee3382612320565b604080518281526020810187905233917fd81c0442e10068a9818f3aa093c9ccb804584690df572d7df3da2d892a6973f2910160405180910390a2949350505050565b600082815260c960205260408120610a4790836123ff565b6000808211610e9a5760405162461bcd60e51b815260206004820152601560248201527f5f736861726573206e65656420746f206265203e3000000000000000000000006044820152606401610af2565b33600090815260336020526040902054821115610ef95760405162461bcd60e51b815260206004820152601b60248201527f7573657220736861726573203c207368617265732077616e74656400000000006044820152606401610af2565b6000610f056000611ccf565b905080610f545760405162461bcd60e51b815260206004820152601060248201527f6572726f7220706179696e6720666565000000000000000000000000000000006044820152606401610af2565b60fd546001600160a01b03166000610f6b8561240b565b905080610f766109b6565b1015610fc45760405162461bcd60e51b815260206004820152601e60248201527f66756e642062616c616e636520746f206c6f7720666f722072656465656d00006044820152606401610af2565b610fd86001600160a01b038316338361243b565b610fe233866124b3565b60405185815233907f99263a7cff0ae4d77a4d481ccc56843708778b4e8bc8d9a04a96e2333384454b9060200160405180910390a2506001949350505050565b60606037805461091b90613a6b565b3360008181526034602090815260408083206001600160a01b0387168452909152812054909190838110156110ce5760405162461bcd60e51b815260206004820152602560248201527f45524332303a2064656372656173656420616c6c6f77616e63652062656c6f7760448201527f207a65726f0000000000000000000000000000000000000000000000000000006064820152608401610af2565b6110db82868684036116cf565b506001949350505050565b6000336109ac8185856118b9565b60007faf290d8680820aad922855f39b306097b20e28774d6c1ad35a20325630c3a02c61112081611ad0565b6101035460ff16156112b85760fb54610102546040516338b1f53960e21b815260048101919091526001600160a01b038a8116602483015290911690819063e2c7d4e490604401602060405180830381865afa158015611184573d6000803e3d6000fd5b505050506040513d601f19601f820116820180604052508101906111a89190613ae7565b6111f45760405162461bcd60e51b815260206004820152601660248201527f73656c6c546f6b656e206e6f7420617070726f766564000000000000000000006044820152606401610af2565b610102546040516338b1f53960e21b815260048101919091526001600160a01b03898116602483015282169063e2c7d4e490604401602060405180830381865afa158015611246573d6000803e3d6000fd5b505050506040513d601f19601f8201168201806040525081019061126a9190613ae7565b6112b65760405162461bcd60e51b815260206004820152601560248201527f627579546f6b656e206e6f7420617070726f76656400000000000000000000006044820152606401610af2565b505b6112c28689612638565b61130e5760405162461bcd60e51b815260206004820152601460248201527f6572726f72207769746820616c6c6f77616e63650000000000000000000000006044820152606401610af2565b6000856001600160a01b031634868660405161132b929190613b04565b60006040518083038185875af1925050503d8060008114611368576040519150601f19603f3d011682016040523d82523d6000602084013e61136d565b606091505b50509050806113be5760405162461bcd60e51b815260206004820152601060248201527f535741505f43414c4c5f4641494c4544000000000000000000000000000000006044820152606401610af2565b6113c7886126e0565b6113d0896127f7565b6113dd576113dd896128dc565b60405133904780156108fc02916000818181858888f19350505050158015611409573d6000803e3d6000fd5b5060019998505050505050505050565b606061010480548060200260200160405190810160405280929190818152602001828054801561099457602002820191906000526020600020905b81546001600160a01b03168152600190910190602001808311611454575050505050905090565b600081815260c96020526040812061090690612a8a565b6000828152609760205260409020600101546114ad81611ad0565b610a738383611aff565b60006114c36001611b21565b905080156114db576000805461ff0019166101001790555b6114e58585610c03565b60fd80546001600160a01b03808a1673ffffffffffffffffffffffffffffffffffffffff199283161790925560fb805482163317905560fc80548d841690831617905560fe80549289169290911691909117905560ff88905561010089905561010380548315801560ff1990921691909117909155611565576101028390555b61156e876126e0565b6115b87faf290d8680820aad922855f39b306097b20e28774d6c1ad35a20325630c3a02c7f62a3325481bde8c49e5877e63d795c31a52537126874bbe11932b19108cb2664612a94565b6115e27f62a3325481bde8c49e5877e63d795c31a52537126874bbe11932b19108cb26648b611add565b61160c7faf290d8680820aad922855f39b306097b20e28774d6c1ad35a20325630c3a02c8b611add565b6116164261010155565b801561165c576000805461ff0019169055604051600181527f7f26b83ff96e1f2b6a682f133852f6798a09c465da95921460cefb38474024989060200160405180910390a15b50505050505050505050565b60006001600160e01b031982167f7965db0b00000000000000000000000000000000000000000000000000000000148061090657507f01ffc9a7000000000000000000000000000000000000000000000000000000006001600160e01b0319831614610906565b6001600160a01b03831661174a5760405162461bcd60e51b8152602060048201526024808201527f45524332303a20617070726f76652066726f6d20746865207a65726f2061646460448201527f72657373000000000000000000000000000000000000000000000000000000006064820152608401610af2565b6001600160a01b0382166117c65760405162461bcd60e51b815260206004820152602260248201527f45524332303a20617070726f766520746f20746865207a65726f20616464726560448201527f73730000000000000000000000000000000000000000000000000000000000006064820152608401610af2565b6001600160a01b0383811660008181526034602090815260408083209487168084529482529182902085905590518481527f8c5be1e5ebec7d5bd14f71427d1e84f3dd0314c0f7b2291e5b200ac8c7c3b925910160405180910390a3505050565b6001600160a01b0383811660009081526034602090815260408083209386168352929052205460001981146118b357818110156118a65760405162461bcd60e51b815260206004820152601d60248201527f45524332303a20696e73756666696369656e7420616c6c6f77616e63650000006044820152606401610af2565b6118b384848484036116cf565b50505050565b6001600160a01b0383166119355760405162461bcd60e51b815260206004820152602560248201527f45524332303a207472616e736665722066726f6d20746865207a65726f20616460448201527f64726573730000000000000000000000000000000000000000000000000000006064820152608401610af2565b6001600160a01b0382166119b15760405162461bcd60e51b815260206004820152602360248201527f45524332303a207472616e7366657220746f20746865207a65726f206164647260448201527f65737300000000000000000000000000000000000000000000000000000000006064820152608401610af2565b6001600160a01b03831660009081526033602052604090205481811015611a405760405162461bcd60e51b815260206004820152602660248201527f45524332303a207472616e7366657220616d6f756e742065786365656473206260448201527f616c616e636500000000000000000000000000000000000000000000000000006064820152608401610af2565b6001600160a01b03808516600090815260336020526040808220858503905591851681529081208054849290611a77908490613acf565b92505081905550826001600160a01b0316846001600160a01b03167fddf252ad1be2c89b69c2b068fc378daa952ba7f163c4a11628f55a4df523b3ef84604051611ac391815260200190565b60405180910390a36118b3565b611ada8133612adf565b50565b611ae78282612b5f565b600082815260c960205260409020610a739082612c01565b611b098282612c16565b600082815260c960205260409020610a739082612c99565b60008054610100900460ff1615611bbe578160ff166001148015611b445750303b155b611bb65760405162461bcd60e51b815260206004820152602e60248201527f496e697469616c697a61626c653a20636f6e747261637420697320616c72656160448201527f647920696e697469616c697a65640000000000000000000000000000000000006064820152608401610af2565b506000919050565b60005460ff808416911610611c3b5760405162461bcd60e51b815260206004820152602e60248201527f496e697469616c697a61626c653a20636f6e747261637420697320616c72656160448201527f647920696e697469616c697a65640000000000000000000000000000000000006064820152608401610af2565b506000805460ff191660ff92909216919091179055600190565b919050565b600054610100900460ff16611cc55760405162461bcd60e51b815260206004820152602b60248201527f496e697469616c697a61626c653a20636f6e7472616374206973206e6f74206960448201526a6e697469616c697a696e6760a81b6064820152608401610af2565b610b058282612cae565b60fd546000906001600160a01b031681611ce96101015490565b90506000611cf74283612d40565b90506000611d036109b6565b90506000611d12848484612d4c565b90506000611d21858585612da9565b9050611d2d8282612dd2565b831015611d7c5760405162461bcd60e51b815260206004820152601e60248201527f496e73756666696369656e742066756e647320746f20706179206665657300006044820152606401610af2565b60fb5460405163a9059cbb60e01b81526001600160a01b039182166004820152602481018490529087169063a9059cbb906044016020604051808303816000875af1158015611dcf573d6000803e3d6000fd5b505050506040513d601f19601f82011682018060405250810190611df39190613ae7565b5060fc5460405163a9059cbb60e01b81526001600160a01b039182166004820152602481018390529087169063a9059cbb906044016020604051808303816000875af1158015611e47573d6000803e3d6000fd5b505050506040513d601f19601f82011682018060405250810190611e6b9190613ae7565b5060408051838152602081018390529081018590527fa0b59378bd5e59b81c2163a41330bd224befd6d585f0f045206733828fccfed39060600160405180910390a187156121c7576000611ed4611ec26101005490565b611ece8b612710612dde565b90612dea565b90506000611ee96032611ece8c612710612dde565b90506000611f0182611efb8d86612dd2565b90612dd2565b6040516370a0823160e01b81523360048201529091506000906001600160a01b038b16906370a0823190602401602060405180830381865afa158015611f4b573d6000803e3d6000fd5b505050506040513d601f19601f82011682018060405250810190611f6f9190613aa0565b905081811015611fc15760405162461bcd60e51b815260206004820152601f60248201527f496e73756666696369656e742066756e647320666f72207472616e73666572006044820152606401610af2565b604051636eb1769f60e11b81523360048201523060248201526000906001600160a01b038c169063dd62ed3e90604401602060405180830381865afa15801561200e573d6000803e3d6000fd5b505050506040513d601f19601f820116820180604052508101906120329190613aa0565b9050828110156120845760405162461bcd60e51b815260206004820152601d60248201527f416c6c6f77616e636520746f206c6f7720666f72207472616e736665720000006044820152606401610af2565b60fb546040516323b872dd60e01b81523360048201526001600160a01b03918216602482015260448101869052908c16906323b872dd906064016020604051808303816000875af11580156120dd573d6000803e3d6000fd5b505050506040513d601f19601f820116820180604052508101906121019190613ae7565b5060fc546040516323b872dd60e01b81523360048201526001600160a01b03918216602482015260448101879052908c16906323b872dd906064016020604051808303816000875af115801561215b573d6000803e3d6000fd5b505050506040513d601f19601f8201168201806040525081019061217f9190613ae7565b5060408051858152602081018790529081018a90527fcb74495dbfb7cbae2eeb993043b470d2c84a7754756ef293834dabafb2c6b5be9060600160405180910390a150505050505b6121d14261010155565b506001979650505050505050565b6000806121eb60355490565b905060006121f76109b6565b60fd54604080517f313ce56700000000000000000000000000000000000000000000000000000000815290519293506012926000926001600160a01b03169163313ce5679160048083019260209291908290030181865afa158015612260573d6000803e3d6000fd5b505050506040513d601f19601f820116820180604052508101906122849190613b14565b60ff169050600061229683600a613c1b565b9050846122a7579695505050505050565b6000838310156122c2576122bb8484612d40565b90506122cf565b6122cc8385612d40565b90505b6122e46122dd82600a613c1b565b8690612dea565b945060006122f28688612dde565b90506123138161230d61230685600a613c1b565b8c90612dea565b90612dde565b9998505050505050505050565b6001600160a01b0382166123765760405162461bcd60e51b815260206004820152601f60248201527f45524332303a206d696e7420746f20746865207a65726f2061646472657373006044820152606401610af2565b80603560008282546123889190613acf565b90915550506001600160a01b038216600090815260336020526040812080548392906123b5908490613acf565b90915550506040518181526001600160a01b038316906000907fddf252ad1be2c89b69c2b068fc378daa952ba7f163c4a11628f55a4df523b3ef9060200160405180910390a35050565b6000610a478383612df6565b60008061241760355490565b905060006124236109b6565b90506124338261230d8387612dea565b949350505050565b6040516001600160a01b038316602482015260448101829052610a7390849063a9059cbb60e01b906064015b60408051601f198184030181529190526020810180517bffffffffffffffffffffffffffffffffffffffffffffffffffffffff166001600160e01b031990931692909217909152612e20565b6001600160a01b03821661252f5760405162461bcd60e51b815260206004820152602160248201527f45524332303a206275726e2066726f6d20746865207a65726f2061646472657360448201527f73000000000000000000000000000000000000000000000000000000000000006064820152608401610af2565b6001600160a01b038216600090815260336020526040902054818110156125be5760405162461bcd60e51b815260206004820152602260248201527f45524332303a206275726e20616d6f756e7420657863656564732062616c616e60448201527f63650000000000000000000000000000000000000000000000000000000000006064820152608401610af2565b6001600160a01b03831660009081526033602052604081208383039055603580548492906125ed908490613c27565b90915550506040518281526000906001600160a01b038516907fddf252ad1be2c89b69c2b068fc378daa952ba7f163c4a11628f55a4df523b3ef9060200160405180910390a3505050565b604051636eb1769f60e11b81523060048201526001600160a01b038381166024830152600091829184169063dd62ed3e90604401602060405180830381865afa158015612689573d6000803e3d6000fd5b505050506040513d601f19601f820116820180604052508101906126ad9190613aa0565b905080156126ca576126ca6001600160a01b038416856000612f05565b6109ac6001600160a01b03841685600019612f05565b806001600160a01b03811630141561273a5760405162461bcd60e51b815260206004820152601460248201527f43616e6e6f7420616374206f6e207368617265730000000000000000000000006044820152606401610af2565b6001600160a01b0382166000908152610106602052604090205460ff16610b05576101048054600180820183557f4c0be60200faa20559308cb7b5a1bb3255c16cb1cab91f525b5ae7a03d02fabe909101805473ffffffffffffffffffffffffffffffffffffffff19166001600160a01b038616908117909155600090815261010660205260409020805460ff19168217905590546127d99190613c27565b6001600160a01b038316600090815261010560205260409020555050565b6000816001600160a01b0381163014156128535760405162461bcd60e51b815260206004820152601460248201527f43616e6e6f7420616374206f6e207368617265730000000000000000000000006044820152606401610af2565b6040516370a0823160e01b81523060048201526000906001600160a01b038516906370a0823190602401602060405180830381865afa15801561289a573d6000803e3d6000fd5b505050506040513d601f19601f820116820180604052508101906128be9190613aa0565b905080156128d05760019250506128d6565b60009250505b50919050565b806001600160a01b0381163014156129365760405162461bcd60e51b815260206004820152601460248201527f43616e6e6f7420616374206f6e207368617265730000000000000000000000006044820152606401610af2565b6001600160a01b0382166000908152610106602052604090205460ff1615610b05576001600160a01b03821660009081526101056020526040812054610104805491929161298690600190613c27565b8154811061299657612996613c3e565b60009182526020808320909101546001600160a01b0387811684526101069092526040909220805460ff191690556101048054919092169250829190849081106129e2576129e2613c3e565b6000918252602080832091909101805473ffffffffffffffffffffffffffffffffffffffff19166001600160a01b03948516179055918316815261010590915260409020829055610104805480612a3b57612a3b613c54565b600082815260208082208301600019908101805473ffffffffffffffffffffffffffffffffffffffff191690559092019092556001600160a01b03861682526101059052604081205550505050565b6000610906825490565b600082815260976020526040808220600101805490849055905190918391839186917fbd79b86ffe0ab8e8776151514217cd7cacd52c909f66475c3af44e129f0b00ff9190a4505050565b60008281526097602090815260408083206001600160a01b038516845290915290205460ff16610b0557612b1d816001600160a01b0316601461303a565b612b2883602061303a565b604051602001612b39929190613c6a565b60408051601f198184030181529082905262461bcd60e51b8252610af29160040161358c565b60008281526097602090815260408083206001600160a01b038516845290915290205460ff16610b055760008281526097602090815260408083206001600160a01b03851684529091529020805460ff19166001179055612bbd3390565b6001600160a01b0316816001600160a01b0316837f2f8788117e7eff1d82e926ec794901d17c78024a50270940304540a733656f0d60405160405180910390a45050565b6000610a47836001600160a01b03841661321b565b60008281526097602090815260408083206001600160a01b038516845290915290205460ff1615610b055760008281526097602090815260408083206001600160a01b0385168085529252808320805460ff1916905551339285917ff6391f5c32d9c69d2a47ea670b442974b53935d1edc7fd64eb21e047a839171b9190a45050565b6000610a47836001600160a01b03841661326a565b600054610100900460ff16612d195760405162461bcd60e51b815260206004820152602b60248201527f496e697469616c697a61626c653a20636f6e7472616374206973206e6f74206960448201526a6e697469616c697a696e6760a81b6064820152608401610af2565b8151612d2c906036906020850190613471565b508051610a73906037906020840190613471565b6000610a478284613c27565b60008042851015612d7757612d7461271061230d6301e187e08188611ece603c5b8a90612dea565b90505b6000612d838483612d40565b6000935090508015612da057612d9d8161230d8487612dea565b92505b50509392505050565b60008042851015612d7757612d7461271061230d6301e187e061230d88611ece612d6d60ff5490565b6000610a478284613acf565b6000610a478284613ceb565b6000610a478284613d0d565b6000826000018281548110612e0d57612e0d613c3e565b9060005260206000200154905092915050565b6000612e75826040518060400160405280602081526020017f5361666545524332303a206c6f772d6c6576656c2063616c6c206661696c6564815250856001600160a01b031661335d9092919063ffffffff16565b805190915015610a735780806020019051810190612e939190613ae7565b610a735760405162461bcd60e51b815260206004820152602a60248201527f5361666545524332303a204552433230206f7065726174696f6e20646964206e60448201527f6f742073756363656564000000000000000000000000000000000000000000006064820152608401610af2565b801580612f7f5750604051636eb1769f60e11b81523060048201526001600160a01b03838116602483015284169063dd62ed3e90604401602060405180830381865afa158015612f59573d6000803e3d6000fd5b505050506040513d601f19601f82011682018060405250810190612f7d9190613aa0565b155b612ff15760405162461bcd60e51b815260206004820152603660248201527f5361666545524332303a20617070726f76652066726f6d206e6f6e2d7a65726f60448201527f20746f206e6f6e2d7a65726f20616c6c6f77616e6365000000000000000000006064820152608401610af2565b6040516001600160a01b038316602482015260448101829052610a739084907f095ea7b30000000000000000000000000000000000000000000000000000000090606401612467565b60606000613049836002613d0d565b613054906002613acf565b67ffffffffffffffff81111561306c5761306c613764565b6040519080825280601f01601f191660200182016040528015613096576020820181803683370190505b5090507f3000000000000000000000000000000000000000000000000000000000000000816000815181106130cd576130cd613c3e565b60200101906001600160f81b031916908160001a9053507f78000000000000000000000000000000000000000000000000000000000000008160018151811061311857613118613c3e565b60200101906001600160f81b031916908160001a905350600061313c846002613d0d565b613147906001613acf565b90505b60018111156131cc577f303132333435363738396162636465660000000000000000000000000000000085600f166010811061318857613188613c3e565b1a60f81b82828151811061319e5761319e613c3e565b60200101906001600160f81b031916908160001a90535060049490941c936131c581613d2c565b905061314a565b508315610a475760405162461bcd60e51b815260206004820181905260248201527f537472696e67733a20686578206c656e67746820696e73756666696369656e746044820152606401610af2565b600081815260018301602052604081205461326257508154600181810184556000848152602080822090930184905584548482528286019093526040902091909155610906565b506000610906565b6000818152600183016020526040812054801561335357600061328e600183613c27565b85549091506000906132a290600190613c27565b90508181146133075760008660000182815481106132c2576132c2613c3e565b90600052602060002001549050808760000184815481106132e5576132e5613c3e565b6000918252602080832090910192909255918252600188019052604090208390555b855486908061331857613318613c54565b600190038181906000526020600020016000905590558560010160008681526020019081526020016000206000905560019350505050610906565b6000915050610906565b60606124338484600085856001600160a01b0385163b6133bf5760405162461bcd60e51b815260206004820152601d60248201527f416464726573733a2063616c6c20746f206e6f6e2d636f6e74726163740000006044820152606401610af2565b600080866001600160a01b031685876040516133db9190613d43565b60006040518083038185875af1925050503d8060008114613418576040519150601f19603f3d011682016040523d82523d6000602084013e61341d565b606091505b509150915061342d828286613438565b979650505050505050565b60608315613447575081610a47565b8251156134575782518084602001fd5b8160405162461bcd60e51b8152600401610af2919061358c565b82805461347d90613a6b565b90600052602060002090601f01602090048101928261349f57600085556134e5565b82601f106134b857805160ff19168380011785556134e5565b828001600101855582156134e5579182015b828111156134e55782518255916020019190600101906134ca565b506134f19291506134f5565b5090565b5b808211156134f157600081556001016134f6565b60006020828403121561351c57600080fd5b81356001600160e01b031981168114610a4757600080fd5b60005b8381101561354f578181015183820152602001613537565b838111156118b35750506000910152565b60008151808452613578816020860160208601613534565b601f01601f19169290920160200192915050565b602081526000610a476020830184613560565b6001600160a01b0381168114611ada57600080fd5b8035611c558161359f565b600080604083850312156135d257600080fd5b82356135dd8161359f565b946020939093013593505050565b60008060006060848603121561360057600080fd5b833561360b8161359f565b9250602084013561361b8161359f565b929592945050506040919091013590565b60006020828403121561363e57600080fd5b5035919050565b6000806040838503121561365857600080fd5b82359150602083013561366a8161359f565b809150509250929050565b60006020828403121561368757600080fd5b8135610a478161359f565b600081518084526020808501945080840160005b838110156136cb5781516001600160a01b0316875295820195908201906001016136a6565b509495945050505050565b610180815260006136eb61018083018f613560565b82810360208401526136fd818f613560565b90508c60408401526001600160a01b038c1660608401528a60808401528960a08401528860c08401528760e0840152866101008401528281036101208401526137468187613692565b941515610140840152505061016001529a9950505050505050505050565b634e487b7160e01b600052604160045260246000fd5b600082601f83011261378b57600080fd5b813567ffffffffffffffff808211156137a6576137a6613764565b604051601f8301601f19908116603f011681019082821181831017156137ce576137ce613764565b816040528381528660208588010111156137e757600080fd5b836020870160208301376000602085830101528094505050505092915050565b6000806040838503121561381a57600080fd5b823567ffffffffffffffff8082111561383257600080fd5b61383e8683870161377a565b9350602085013591508082111561385457600080fd5b506138618582860161377a565b9150509250929050565b6000806040838503121561387e57600080fd5b50508035926020909101359150565b60008060008060008060a087890312156138a657600080fd5b86356138b18161359f565b955060208701356138c18161359f565b945060408701356138d18161359f565b935060608701356138e18161359f565b9250608087013567ffffffffffffffff808211156138fe57600080fd5b818901915089601f83011261391257600080fd5b81358181111561392157600080fd5b8a602082850101111561393357600080fd5b6020830194508093505050509295509295509295565b602081526000610a476020830184613692565b6000806040838503121561396f57600080fd5b823561397a8161359f565b9150602083013561366a8161359f565b8015158114611ada57600080fd5b8035611c558161398a565b60008060008060008060008060006101208a8c0312156139c257600080fd5b89356139cd8161359f565b985060208a0135975060408a0135965060608a01356139eb8161359f565b95506139f960808b016135b4565b945060a08a013567ffffffffffffffff80821115613a1657600080fd5b613a228d838e0161377a565b955060c08c0135915080821115613a3857600080fd5b50613a458c828d0161377a565b93505060e08a01359150613a5c6101008b01613998565b90509295985092959850929598565b600181811c90821680613a7f57607f821691505b602082108114156128d657634e487b7160e01b600052602260045260246000fd5b600060208284031215613ab257600080fd5b5051919050565b634e487b7160e01b600052601160045260246000fd5b60008219821115613ae257613ae2613ab9565b500190565b600060208284031215613af957600080fd5b8151610a478161398a565b8183823760009101908152919050565b600060208284031215613b2657600080fd5b815160ff81168114610a4757600080fd5b600181815b80851115613b72578160001904821115613b5857613b58613ab9565b80851615613b6557918102915b93841c9390800290613b3c565b509250929050565b600082613b8957506001610906565b81613b9657506000610906565b8160018114613bac5760028114613bb657613bd2565b6001915050610906565b60ff841115613bc757613bc7613ab9565b50506001821b610906565b5060208310610133831016604e8410600b8410161715613bf5575081810a610906565b613bff8383613b37565b8060001904821115613c1357613c13613ab9565b029392505050565b6000610a478383613b7a565b600082821015613c3957613c39613ab9565b500390565b634e487b7160e01b600052603260045260246000fd5b634e487b7160e01b600052603160045260246000fd5b7f416363657373436f6e74726f6c3a206163636f756e7420000000000000000000815260008351613ca2816017850160208801613534565b7f206973206d697373696e6720726f6c65200000000000000000000000000000006017918401918201528351613cdf816028840160208801613534565b01602801949350505050565b600082613d0857634e487b7160e01b600052601260045260246000fd5b500490565b6000816000190483118215151615613d2757613d27613ab9565b500290565b600081613d3b57613d3b613ab9565b506000190190565b60008251613d55818460208701613534565b919091019291505056fea26469706673582212200b456104894570baa415494d957d8474f8a138777e4bb8b6992174f4bfda779a64736f6c634300080c0033",
  "linkReferences": {},
  "deployedLinkReferences": {}
}