{
  "_format": "hh-sol-artifact-1",
  "contractName": "TokenLogic",
  "sourceName": "contracts/flatten/FundLogicFlattened.sol",
  "abi": [
    {
      "inputs": [],
      "stateMutability": "nonpayable",
      "type": "constructor"
    },
    {
      "anonymous": false,
      "inputs": [
        {
          "indexed": true,
          "internalType": "address",
          "name": "owner",
          "type": "address"
        },
        {
          "indexed": true,
          "internalType": "address",
          "name": "spender",
          "type": "address"
        },
        {
          "indexed": false,
          "internalType": "uint256",
          "name": "value",
          "type": "uint256"
        }
      ],
      "name": "Approval",
      "type": "event"
    },
    {
      "anonymous": false,
      "inputs": [
        {
          "indexed": false,
          "internalType": "uint8",
          "name": "version",
          "type": "uint8"
        }
      ],
      "name": "Initialized",
      "type": "event"
    },
    {
      "anonymous": false,
      "inputs": [
        {
          "indexed": true,
          "internalType": "address",
          "name": "from",
          "type": "address"
        },
        {
          "indexed": true,
          "internalType": "address",
          "name": "to",
          "type": "address"
        },
        {
          "indexed": false,
          "internalType": "uint256",
          "name": "value",
          "type": "uint256"
        }
      ],
      "name": "Transfer",
      "type": "event"
    },
    {
      "inputs": [
        {
          "internalType": "address",
          "name": "owner",
          "type": "address"
        },
        {
          "internalType": "address",
          "name": "spender",
          "type": "address"
        }
      ],
      "name": "allowance",
      "outputs": [
        {
          "internalType": "uint256",
          "name": "",
          "type": "uint256"
        }
      ],
      "stateMutability": "view",
      "type": "function"
    },
    {
      "inputs": [
        {
          "internalType": "address",
          "name": "spender",
          "type": "address"
        },
        {
          "internalType": "uint256",
          "name": "amount",
          "type": "uint256"
        }
      ],
      "name": "approve",
      "outputs": [
        {
          "internalType": "bool",
          "name": "",
          "type": "bool"
        }
      ],
      "stateMutability": "nonpayable",
      "type": "function"
    },
    {
      "inputs": [
        {
          "internalType": "address",
          "name": "account",
          "type": "address"
        }
      ],
      "name": "balanceOf",
      "outputs": [
        {
          "internalType": "uint256",
          "name": "",
          "type": "uint256"
        }
      ],
      "stateMutability": "view",
      "type": "function"
    },
    {
      "inputs": [],
      "name": "decimals",
      "outputs": [
        {
          "internalType": "uint8",
          "name": "",
          "type": "uint8"
        }
      ],
      "stateMutability": "view",
      "type": "function"
    },
    {
      "inputs": [
        {
          "internalType": "address",
          "name": "spender",
          "type": "address"
        },
        {
          "internalType": "uint256",
          "name": "subtractedValue",
          "type": "uint256"
        }
      ],
      "name": "decreaseAllowance",
      "outputs": [
        {
          "internalType": "bool",
          "name": "",
          "type": "bool"
        }
      ],
      "stateMutability": "nonpayable",
      "type": "function"
    },
    {
      "inputs": [
        {
          "internalType": "address",
          "name": "spender",
          "type": "address"
        },
        {
          "internalType": "uint256",
          "name": "addedValue",
          "type": "uint256"
        }
      ],
      "name": "increaseAllowance",
      "outputs": [
        {
          "internalType": "bool",
          "name": "",
          "type": "bool"
        }
      ],
      "stateMutability": "nonpayable",
      "type": "function"
    },
    {
      "inputs": [
        {
          "internalType": "string",
          "name": "_name",
          "type": "string"
        },
        {
          "internalType": "string",
          "name": "_symbol",
          "type": "string"
        }
      ],
      "name": "initialize",
      "outputs": [],
      "stateMutability": "nonpayable",
      "type": "function"
    },
    {
      "inputs": [],
      "name": "name",
      "outputs": [
        {
          "internalType": "string",
          "name": "",
          "type": "string"
        }
      ],
      "stateMutability": "view",
      "type": "function"
    },
    {
      "inputs": [],
      "name": "symbol",
      "outputs": [
        {
          "internalType": "string",
          "name": "",
          "type": "string"
        }
      ],
      "stateMutability": "view",
      "type": "function"
    },
    {
      "inputs": [],
      "name": "totalSupply",
      "outputs": [
        {
          "internalType": "uint256",
          "name": "",
          "type": "uint256"
        }
      ],
      "stateMutability": "view",
      "type": "function"
    },
    {
      "inputs": [
        {
          "internalType": "address",
          "name": "to",
          "type": "address"
        },
        {
          "internalType": "uint256",
          "name": "amount",
          "type": "uint256"
        }
      ],
      "name": "transfer",
      "outputs": [
        {
          "internalType": "bool",
          "name": "",
          "type": "bool"
        }
      ],
      "stateMutability": "nonpayable",
      "type": "function"
    },
    {
      "inputs": [
        {
          "internalType": "address",
          "name": "from",
          "type": "address"
        },
        {
          "internalType": "address",
          "name": "to",
          "type": "address"
        },
        {
          "internalType": "uint256",
          "name": "amount",
          "type": "uint256"
        }
      ],
      "name": "transferFrom",
      "outputs": [
        {
          "internalType": "bool",
          "name": "",
          "type": "bool"
        }
      ],
      "stateMutability": "nonpayable",
      "type": "function"
    }
  ],
  "bytecode": "0x608060405234801561001057600080fd5b50610df7806100206000396000f3fe608060405234801561001057600080fd5b50600436106100d45760003560e01c80634cd88b7611610081578063a457c2d71161005b578063a457c2d7146101a7578063a9059cbb146101ba578063dd62ed3e146101cd57600080fd5b80634cd88b761461016157806370a082311461017657806395d89b411461019f57600080fd5b806323b872dd116100b257806323b872dd1461012c578063313ce5671461013f578063395093511461014e57600080fd5b806306fdde03146100d9578063095ea7b3146100f757806318160ddd1461011a575b600080fd5b6100e1610206565b6040516100ee9190610b32565b60405180910390f35b61010a610105366004610b9e565b610298565b60405190151581526020016100ee565b6035545b6040519081526020016100ee565b61010a61013a366004610bc8565b6102b0565b604051601281526020016100ee565b61010a61015c366004610b9e565b6102d4565b61017461016f366004610ca7565b610313565b005b61011e610184366004610d0b565b6001600160a01b031660009081526033602052604090205490565b6100e161038c565b61010a6101b5366004610b9e565b61039b565b61010a6101c8366004610b9e565b61044a565b61011e6101db366004610d2d565b6001600160a01b03918216600090815260346020908152604080832093909416825291909152205490565b60606036805461021590610d60565b80601f016020809104026020016040519081016040528092919081815260200182805461024190610d60565b801561028e5780601f106102635761010080835404028352916020019161028e565b820191906000526020600020905b81548152906001019060200180831161027157829003601f168201915b5050505050905090565b6000336102a6818585610458565b5060019392505050565b6000336102be8582856105b0565b6102c9858585610642565b506001949350505050565b3360008181526034602090815260408083206001600160a01b03871684529091528120549091906102a6908290869061030e908790610d9b565b610458565b600061031f6001610859565b90508015610337576000805461ff0019166101001790555b6103418383610992565b8015610387576000805461ff0019169055604051600181527f7f26b83ff96e1f2b6a682f133852f6798a09c465da95921460cefb38474024989060200160405180910390a15b505050565b60606037805461021590610d60565b3360008181526034602090815260408083206001600160a01b03871684529091528120549091908381101561043d5760405162461bcd60e51b815260206004820152602560248201527f45524332303a2064656372656173656420616c6c6f77616e63652062656c6f7760448201527f207a65726f00000000000000000000000000000000000000000000000000000060648201526084015b60405180910390fd5b6102c98286868403610458565b6000336102a6818585610642565b6001600160a01b0383166104d35760405162461bcd60e51b8152602060048201526024808201527f45524332303a20617070726f76652066726f6d20746865207a65726f2061646460448201527f72657373000000000000000000000000000000000000000000000000000000006064820152608401610434565b6001600160a01b03821661054f5760405162461bcd60e51b815260206004820152602260248201527f45524332303a20617070726f766520746f20746865207a65726f20616464726560448201527f73730000000000000000000000000000000000000000000000000000000000006064820152608401610434565b6001600160a01b0383811660008181526034602090815260408083209487168084529482529182902085905590518481527f8c5be1e5ebec7d5bd14f71427d1e84f3dd0314c0f7b2291e5b200ac8c7c3b925910160405180910390a3505050565b6001600160a01b03838116600090815260346020908152604080832093861683529290522054600019811461063c578181101561062f5760405162461bcd60e51b815260206004820152601d60248201527f45524332303a20696e73756666696369656e7420616c6c6f77616e63650000006044820152606401610434565b61063c8484848403610458565b50505050565b6001600160a01b0383166106be5760405162461bcd60e51b815260206004820152602560248201527f45524332303a207472616e736665722066726f6d20746865207a65726f20616460448201527f64726573730000000000000000000000000000000000000000000000000000006064820152608401610434565b6001600160a01b03821661073a5760405162461bcd60e51b815260206004820152602360248201527f45524332303a207472616e7366657220746f20746865207a65726f206164647260448201527f65737300000000000000000000000000000000000000000000000000000000006064820152608401610434565b6001600160a01b038316600090815260336020526040902054818110156107c95760405162461bcd60e51b815260206004820152602660248201527f45524332303a207472616e7366657220616d6f756e742065786365656473206260448201527f616c616e636500000000000000000000000000000000000000000000000000006064820152608401610434565b6001600160a01b03808516600090815260336020526040808220858503905591851681529081208054849290610800908490610d9b565b92505081905550826001600160a01b0316846001600160a01b03167fddf252ad1be2c89b69c2b068fc378daa952ba7f163c4a11628f55a4df523b3ef8460405161084c91815260200190565b60405180910390a361063c565b60008054610100900460ff16156108f6578160ff16600114801561087c5750303b155b6108ee5760405162461bcd60e51b815260206004820152602e60248201527f496e697469616c697a61626c653a20636f6e747261637420697320616c72656160448201527f647920696e697469616c697a65640000000000000000000000000000000000006064820152608401610434565b506000919050565b60005460ff8084169116106109735760405162461bcd60e51b815260206004820152602e60248201527f496e697469616c697a61626c653a20636f6e747261637420697320616c72656160448201527f647920696e697469616c697a65640000000000000000000000000000000000006064820152608401610434565b506000805460ff191660ff92909216919091179055600190565b919050565b600054610100900460ff166109fd5760405162461bcd60e51b815260206004820152602b60248201527f496e697469616c697a61626c653a20636f6e7472616374206973206e6f74206960448201526a6e697469616c697a696e6760a81b6064820152608401610434565b610a078282610a0b565b5050565b600054610100900460ff16610a765760405162461bcd60e51b815260206004820152602b60248201527f496e697469616c697a61626c653a20636f6e7472616374206973206e6f74206960448201526a6e697469616c697a696e6760a81b6064820152608401610434565b8151610a89906036906020850190610a99565b5080516103879060379060208401905b828054610aa590610d60565b90600052602060002090601f016020900481019282610ac75760008555610b0d565b82601f10610ae057805160ff1916838001178555610b0d565b82800160010185558215610b0d579182015b82811115610b0d578251825591602001919060010190610af2565b50610b19929150610b1d565b5090565b5b80821115610b195760008155600101610b1e565b600060208083528351808285015260005b81811015610b5f57858101830151858201604001528201610b43565b81811115610b71576000604083870101525b50601f01601f1916929092016040019392505050565b80356001600160a01b038116811461098d57600080fd5b60008060408385031215610bb157600080fd5b610bba83610b87565b946020939093013593505050565b600080600060608486031215610bdd57600080fd5b610be684610b87565b9250610bf460208501610b87565b9150604084013590509250925092565b634e487b7160e01b600052604160045260246000fd5b600082601f830112610c2b57600080fd5b813567ffffffffffffffff80821115610c4657610c46610c04565b604051601f8301601f19908116603f01168101908282118183101715610c6e57610c6e610c04565b81604052838152866020858801011115610c8757600080fd5b836020870160208301376000602085830101528094505050505092915050565b60008060408385031215610cba57600080fd5b823567ffffffffffffffff80821115610cd257600080fd5b610cde86838701610c1a565b93506020850135915080821115610cf457600080fd5b50610d0185828601610c1a565b9150509250929050565b600060208284031215610d1d57600080fd5b610d2682610b87565b9392505050565b60008060408385031215610d4057600080fd5b610d4983610b87565b9150610d5760208401610b87565b90509250929050565b600181811c90821680610d7457607f821691505b60208210811415610d9557634e487b7160e01b600052602260045260246000fd5b50919050565b60008219821115610dbc57634e487b7160e01b600052601160045260246000fd5b50019056fea2646970667358221220f36eebbf17492ef1dd22aaab21a7457f17799e5412a75d7198d5172db784e08b64736f6c634300080c0033",
  "linkReferences": {},
  "deployedLinkReferences": {}
}