{
  "_format": "hh-sol-artifact-1",
  "contractName": "TokenLogic",
  "sourceName": "contracts/fund/TokenLogic.sol",
  "abi": [
    {
      "inputs": [],
      "stateMutability": "nonpayable",
      "type": "constructor"
    },
    {
      "anonymous": false,
      "inputs": [
        {
          "indexed": true,
          "internalType": "address",
          "name": "owner",
          "type": "address"
        },
        {
          "indexed": true,
          "internalType": "address",
          "name": "spender",
          "type": "address"
        },
        {
          "indexed": false,
          "internalType": "uint256",
          "name": "value",
          "type": "uint256"
        }
      ],
      "name": "Approval",
      "type": "event"
    },
    {
      "anonymous": false,
      "inputs": [
        {
          "indexed": false,
          "internalType": "uint8",
          "name": "version",
          "type": "uint8"
        }
      ],
      "name": "Initialized",
      "type": "event"
    },
    {
      "anonymous": false,
      "inputs": [
        {
          "indexed": true,
          "internalType": "address",
          "name": "from",
          "type": "address"
        },
        {
          "indexed": true,
          "internalType": "address",
          "name": "to",
          "type": "address"
        },
        {
          "indexed": false,
          "internalType": "uint256",
          "name": "value",
          "type": "uint256"
        }
      ],
      "name": "Transfer",
      "type": "event"
    },
    {
      "inputs": [
        {
          "internalType": "address",
          "name": "owner",
          "type": "address"
        },
        {
          "internalType": "address",
          "name": "spender",
          "type": "address"
        }
      ],
      "name": "allowance",
      "outputs": [
        {
          "internalType": "uint256",
          "name": "",
          "type": "uint256"
        }
      ],
      "stateMutability": "view",
      "type": "function"
    },
    {
      "inputs": [
        {
          "internalType": "address",
          "name": "spender",
          "type": "address"
        },
        {
          "internalType": "uint256",
          "name": "amount",
          "type": "uint256"
        }
      ],
      "name": "approve",
      "outputs": [
        {
          "internalType": "bool",
          "name": "",
          "type": "bool"
        }
      ],
      "stateMutability": "nonpayable",
      "type": "function"
    },
    {
      "inputs": [
        {
          "internalType": "address",
          "name": "account",
          "type": "address"
        }
      ],
      "name": "balanceOf",
      "outputs": [
        {
          "internalType": "uint256",
          "name": "",
          "type": "uint256"
        }
      ],
      "stateMutability": "view",
      "type": "function"
    },
    {
      "inputs": [],
      "name": "decimals",
      "outputs": [
        {
          "internalType": "uint8",
          "name": "",
          "type": "uint8"
        }
      ],
      "stateMutability": "view",
      "type": "function"
    },
    {
      "inputs": [
        {
          "internalType": "address",
          "name": "spender",
          "type": "address"
        },
        {
          "internalType": "uint256",
          "name": "subtractedValue",
          "type": "uint256"
        }
      ],
      "name": "decreaseAllowance",
      "outputs": [
        {
          "internalType": "bool",
          "name": "",
          "type": "bool"
        }
      ],
      "stateMutability": "nonpayable",
      "type": "function"
    },
    {
      "inputs": [
        {
          "internalType": "address",
          "name": "spender",
          "type": "address"
        },
        {
          "internalType": "uint256",
          "name": "addedValue",
          "type": "uint256"
        }
      ],
      "name": "increaseAllowance",
      "outputs": [
        {
          "internalType": "bool",
          "name": "",
          "type": "bool"
        }
      ],
      "stateMutability": "nonpayable",
      "type": "function"
    },
    {
      "inputs": [
        {
          "internalType": "string",
          "name": "_name",
          "type": "string"
        },
        {
          "internalType": "string",
          "name": "_symbol",
          "type": "string"
        }
      ],
      "name": "initialize",
      "outputs": [],
      "stateMutability": "nonpayable",
      "type": "function"
    },
    {
      "inputs": [],
      "name": "name",
      "outputs": [
        {
          "internalType": "string",
          "name": "",
          "type": "string"
        }
      ],
      "stateMutability": "view",
      "type": "function"
    },
    {
      "inputs": [],
      "name": "symbol",
      "outputs": [
        {
          "internalType": "string",
          "name": "",
          "type": "string"
        }
      ],
      "stateMutability": "view",
      "type": "function"
    },
    {
      "inputs": [],
      "name": "totalSupply",
      "outputs": [
        {
          "internalType": "uint256",
          "name": "",
          "type": "uint256"
        }
      ],
      "stateMutability": "view",
      "type": "function"
    },
    {
      "inputs": [
        {
          "internalType": "address",
          "name": "to",
          "type": "address"
        },
        {
          "internalType": "uint256",
          "name": "amount",
          "type": "uint256"
        }
      ],
      "name": "transfer",
      "outputs": [
        {
          "internalType": "bool",
          "name": "",
          "type": "bool"
        }
      ],
      "stateMutability": "nonpayable",
      "type": "function"
    },
    {
      "inputs": [
        {
          "internalType": "address",
          "name": "from",
          "type": "address"
        },
        {
          "internalType": "address",
          "name": "to",
          "type": "address"
        },
        {
          "internalType": "uint256",
          "name": "amount",
          "type": "uint256"
        }
      ],
      "name": "transferFrom",
      "outputs": [
        {
          "internalType": "bool",
          "name": "",
          "type": "bool"
        }
      ],
      "stateMutability": "nonpayable",
      "type": "function"
    }
  ],
  "bytecode": "0x608060405234801561001057600080fd5b50610ca1806100206000396000f3fe608060405234801561001057600080fd5b50600436106100d45760003560e01c80634cd88b7611610081578063a457c2d71161005b578063a457c2d7146101a7578063a9059cbb146101ba578063dd62ed3e146101cd57600080fd5b80634cd88b761461016157806370a082311461017657806395d89b411461019f57600080fd5b806323b872dd116100b257806323b872dd1461012c578063313ce5671461013f578063395093511461014e57600080fd5b806306fdde03146100d9578063095ea7b3146100f757806318160ddd1461011a575b600080fd5b6100e1610206565b6040516100ee91906109d7565b60405180910390f35b61010a610105366004610a48565b610298565b60405190151581526020016100ee565b6035545b6040519081526020016100ee565b61010a61013a366004610a72565b6102b0565b604051601281526020016100ee565b61010a61015c366004610a48565b6102d4565b61017461016f366004610b51565b610313565b005b61011e610184366004610bb5565b6001600160a01b031660009081526033602052604090205490565b6100e1610391565b61010a6101b5366004610a48565b6103a0565b61010a6101c8366004610a48565b61044a565b61011e6101db366004610bd7565b6001600160a01b03918216600090815260346020908152604080832093909416825291909152205490565b60606036805461021590610c0a565b80601f016020809104026020016040519081016040528092919081815260200182805461024190610c0a565b801561028e5780601f106102635761010080835404028352916020019161028e565b820191906000526020600020905b81548152906001019060200180831161027157829003601f168201915b5050505050905090565b6000336102a6818585610458565b5060019392505050565b6000336102be8582856105b0565b6102c9858585610642565b506001949350505050565b3360008181526034602090815260408083206001600160a01b03871684529091528120549091906102a6908290869061030e908790610c45565b610458565b600054610100900460ff166103835760405162461bcd60e51b815260206004820152602b60248201527f496e697469616c697a61626c653a20636f6e7472616374206973206e6f74206960448201526a6e697469616c697a696e6760a81b60648201526084015b60405180910390fd5b61038d8282610836565b5050565b60606037805461021590610c0a565b3360008181526034602090815260408083206001600160a01b03871684529091528120549091908381101561043d5760405162461bcd60e51b815260206004820152602560248201527f45524332303a2064656372656173656420616c6c6f77616e63652062656c6f7760448201527f207a65726f000000000000000000000000000000000000000000000000000000606482015260840161037a565b6102c98286868403610458565b6000336102a6818585610642565b6001600160a01b0383166104d35760405162461bcd60e51b8152602060048201526024808201527f45524332303a20617070726f76652066726f6d20746865207a65726f2061646460448201527f7265737300000000000000000000000000000000000000000000000000000000606482015260840161037a565b6001600160a01b03821661054f5760405162461bcd60e51b815260206004820152602260248201527f45524332303a20617070726f766520746f20746865207a65726f20616464726560448201527f7373000000000000000000000000000000000000000000000000000000000000606482015260840161037a565b6001600160a01b0383811660008181526034602090815260408083209487168084529482529182902085905590518481527f8c5be1e5ebec7d5bd14f71427d1e84f3dd0314c0f7b2291e5b200ac8c7c3b925910160405180910390a3505050565b6001600160a01b03838116600090815260346020908152604080832093861683529290522054600019811461063c578181101561062f5760405162461bcd60e51b815260206004820152601d60248201527f45524332303a20696e73756666696369656e7420616c6c6f77616e6365000000604482015260640161037a565b61063c8484848403610458565b50505050565b6001600160a01b0383166106be5760405162461bcd60e51b815260206004820152602560248201527f45524332303a207472616e736665722066726f6d20746865207a65726f20616460448201527f6472657373000000000000000000000000000000000000000000000000000000606482015260840161037a565b6001600160a01b03821661073a5760405162461bcd60e51b815260206004820152602360248201527f45524332303a207472616e7366657220746f20746865207a65726f206164647260448201527f6573730000000000000000000000000000000000000000000000000000000000606482015260840161037a565b6001600160a01b038316600090815260336020526040902054818110156107c95760405162461bcd60e51b815260206004820152602660248201527f45524332303a207472616e7366657220616d6f756e742065786365656473206260448201527f616c616e63650000000000000000000000000000000000000000000000000000606482015260840161037a565b6001600160a01b0380851660008181526033602052604080822086860390559286168082529083902080548601905591517fddf252ad1be2c89b69c2b068fc378daa952ba7f163c4a11628f55a4df523b3ef906108299086815260200190565b60405180910390a361063c565b600054610100900460ff166108a15760405162461bcd60e51b815260206004820152602b60248201527f496e697469616c697a61626c653a20636f6e7472616374206973206e6f74206960448201526a6e697469616c697a696e6760a81b606482015260840161037a565b61038d82826108b0565b505050565b600054610100900460ff1661091b5760405162461bcd60e51b815260206004820152602b60248201527f496e697469616c697a61626c653a20636f6e7472616374206973206e6f74206960448201526a6e697469616c697a696e6760a81b606482015260840161037a565b815161092e90603690602085019061093e565b5080516108ab9060379060208401905b82805461094a90610c0a565b90600052602060002090601f01602090048101928261096c57600085556109b2565b82601f1061098557805160ff19168380011785556109b2565b828001600101855582156109b2579182015b828111156109b2578251825591602001919060010190610997565b506109be9291506109c2565b5090565b5b808211156109be57600081556001016109c3565b600060208083528351808285015260005b81811015610a04578581018301518582016040015282016109e8565b81811115610a16576000604083870101525b50601f01601f1916929092016040019392505050565b80356001600160a01b0381168114610a4357600080fd5b919050565b60008060408385031215610a5b57600080fd5b610a6483610a2c565b946020939093013593505050565b600080600060608486031215610a8757600080fd5b610a9084610a2c565b9250610a9e60208501610a2c565b9150604084013590509250925092565b634e487b7160e01b600052604160045260246000fd5b600082601f830112610ad557600080fd5b813567ffffffffffffffff80821115610af057610af0610aae565b604051601f8301601f19908116603f01168101908282118183101715610b1857610b18610aae565b81604052838152866020858801011115610b3157600080fd5b836020870160208301376000602085830101528094505050505092915050565b60008060408385031215610b6457600080fd5b823567ffffffffffffffff80821115610b7c57600080fd5b610b8886838701610ac4565b93506020850135915080821115610b9e57600080fd5b50610bab85828601610ac4565b9150509250929050565b600060208284031215610bc757600080fd5b610bd082610a2c565b9392505050565b60008060408385031215610bea57600080fd5b610bf383610a2c565b9150610c0160208401610a2c565b90509250929050565b600181811c90821680610c1e57607f821691505b60208210811415610c3f57634e487b7160e01b600052602260045260246000fd5b50919050565b60008219821115610c6657634e487b7160e01b600052601160045260246000fd5b50019056fea2646970667358221220901576f649e3c025547267050a2d1d372a19cf978f31bf56a61a7b3c426e335264736f6c634300080c0033",
  "linkReferences": {},
  "deployedLinkReferences": {}
}